{
  "contractName": "FactoryTracker",
  "abi": [
    {
      "inputs": [
        {
          "internalType": "address",
          "name": "_pairAddress",
          "type": "address"
        }
      ],
      "name": "getPair",
      "outputs": [
        {
          "components": [
            {
              "internalType": "address",
              "name": "token0",
              "type": "address"
            },
            {
              "internalType": "address",
              "name": "token1",
              "type": "address"
            },
            {
              "internalType": "uint112",
              "name": "reserve0",
              "type": "uint112"
            },
            {
              "internalType": "uint112",
              "name": "reserve1",
              "type": "uint112"
            },
            {
              "internalType": "string",
              "name": "name",
              "type": "string"
            },
            {
              "internalType": "string",
              "name": "symbol",
              "type": "string"
            },
            {
              "internalType": "string",
              "name": "token0Symbol",
              "type": "string"
            },
            {
              "internalType": "string",
              "name": "token1Symbol",
              "type": "string"
            },
            {
              "internalType": "uint256",
              "name": "token0Decimals",
              "type": "uint256"
            },
            {
              "internalType": "uint256",
              "name": "token1Decimals",
              "type": "uint256"
            },
            {
              "internalType": "uint256",
              "name": "totalSupply",
              "type": "uint256"
            },
            {
              "internalType": "uint256",
              "name": "balance",
              "type": "uint256"
            }
          ],
          "internalType": "struct FactoryTracker.PairData",
          "name": "",
          "type": "tuple"
        }
      ],
      "stateMutability": "view",
      "type": "function"
    },
    {
      "inputs": [
        {
          "internalType": "address",
          "name": "_pairAddress",
          "type": "address"
        },
        {
          "internalType": "address",
          "name": "_account",
          "type": "address"
        }
      ],
      "name": "getPairWithBalanceOf",
      "outputs": [
        {
          "components": [
            {
              "internalType": "address",
              "name": "token0",
              "type": "address"
            },
            {
              "internalType": "address",
              "name": "token1",
              "type": "address"
            },
            {
              "internalType": "uint112",
              "name": "reserve0",
              "type": "uint112"
            },
            {
              "internalType": "uint112",
              "name": "reserve1",
              "type": "uint112"
            },
            {
              "internalType": "string",
              "name": "name",
              "type": "string"
            },
            {
              "internalType": "string",
              "name": "symbol",
              "type": "string"
            },
            {
              "internalType": "string",
              "name": "token0Symbol",
              "type": "string"
            },
            {
              "internalType": "string",
              "name": "token1Symbol",
              "type": "string"
            },
            {
              "internalType": "uint256",
              "name": "token0Decimals",
              "type": "uint256"
            },
            {
              "internalType": "uint256",
              "name": "token1Decimals",
              "type": "uint256"
            },
            {
              "internalType": "uint256",
              "name": "totalSupply",
              "type": "uint256"
            },
            {
              "internalType": "uint256",
              "name": "balance",
              "type": "uint256"
            }
          ],
          "internalType": "struct FactoryTracker.PairData",
          "name": "",
          "type": "tuple"
        }
      ],
      "stateMutability": "view",
      "type": "function"
    },
    {
      "inputs": [
        {
          "internalType": "address",
          "name": "_tokenAddress",
          "type": "address"
        }
      ],
      "name": "getToken",
      "outputs": [
        {
          "components": [
            {
              "internalType": "address",
              "name": "_tokenAddress",
              "type": "address"
            },
            {
              "internalType": "string",
              "name": "name",
              "type": "string"
            },
            {
              "internalType": "string",
              "name": "symbol",
              "type": "string"
            },
            {
              "internalType": "uint256",
              "name": "totalSupply",
              "type": "uint256"
            },
            {
              "internalType": "uint256",
              "name": "balance",
              "type": "uint256"
            }
          ],
          "internalType": "struct FactoryTracker.TokenData",
          "name": "",
          "type": "tuple"
        }
      ],
      "stateMutability": "view",
      "type": "function"
    },
    {
      "inputs": [
        {
          "internalType": "address",
          "name": "_tokenAddress",
          "type": "address"
        },
        {
          "internalType": "address",
          "name": "_account",
          "type": "address"
        }
      ],
      "name": "getTokenWithBalanceOf",
      "outputs": [
        {
          "components": [
            {
              "internalType": "address",
              "name": "_tokenAddress",
              "type": "address"
            },
            {
              "internalType": "string",
              "name": "name",
              "type": "string"
            },
            {
              "internalType": "string",
              "name": "symbol",
              "type": "string"
            },
            {
              "internalType": "uint256",
              "name": "totalSupply",
              "type": "uint256"
            },
            {
              "internalType": "uint256",
              "name": "balance",
              "type": "uint256"
            }
          ],
          "internalType": "struct FactoryTracker.TokenData",
          "name": "",
          "type": "tuple"
        }
      ],
      "stateMutability": "view",
      "type": "function"
    },
    {
      "inputs": [
        {
          "internalType": "address",
          "name": "_tokenAddress",
          "type": "address"
        },
        {
          "internalType": "address",
          "name": "_account",
          "type": "address"
        },
        {
          "internalType": "address[]",
          "name": "_factories",
          "type": "address[]"
        },
        {
          "internalType": "address[]",
          "name": "_quoteTokens",
          "type": "address[]"
        }
      ],
      "name": "getTokenWithBalanceOfAndLps",
      "outputs": [
        {
          "components": [
            {
              "internalType": "address",
              "name": "_tokenAddress",
              "type": "address"
            },
            {
              "internalType": "string",
              "name": "name",
              "type": "string"
            },
            {
              "internalType": "string",
              "name": "symbol",
              "type": "string"
            },
            {
              "internalType": "uint256",
              "name": "totalSupply",
              "type": "uint256"
            },
            {
              "internalType": "uint256",
              "name": "balance",
              "type": "uint256"
            },
            {
              "components": [
                {
                  "internalType": "address",
                  "name": "token0",
                  "type": "address"
                },
                {
                  "internalType": "address",
                  "name": "token1",
                  "type": "address"
                },
                {
                  "internalType": "uint112",
                  "name": "reserve0",
                  "type": "uint112"
                },
                {
                  "internalType": "uint112",
                  "name": "reserve1",
                  "type": "uint112"
                },
                {
                  "internalType": "string",
                  "name": "name",
                  "type": "string"
                },
                {
                  "internalType": "string",
                  "name": "symbol",
                  "type": "string"
                },
                {
                  "internalType": "string",
                  "name": "token0Symbol",
                  "type": "string"
                },
                {
                  "internalType": "string",
                  "name": "token1Symbol",
                  "type": "string"
                },
                {
                  "internalType": "uint256",
                  "name": "token0Decimals",
                  "type": "uint256"
                },
                {
                  "internalType": "uint256",
                  "name": "token1Decimals",
                  "type": "uint256"
                },
                {
                  "internalType": "uint256",
                  "name": "totalSupply",
                  "type": "uint256"
                },
                {
                  "internalType": "uint256",
                  "name": "balance",
                  "type": "uint256"
                }
              ],
              "internalType": "struct FactoryTracker.PairData[]",
              "name": "_lp0Data",
              "type": "tuple[]"
            },
            {
              "components": [
                {
                  "internalType": "address",
                  "name": "token0",
                  "type": "address"
                },
                {
                  "internalType": "address",
                  "name": "token1",
                  "type": "address"
                },
                {
                  "internalType": "uint112",
                  "name": "reserve0",
                  "type": "uint112"
                },
                {
                  "internalType": "uint112",
                  "name": "reserve1",
                  "type": "uint112"
                },
                {
                  "internalType": "string",
                  "name": "name",
                  "type": "string"
                },
                {
                  "internalType": "string",
                  "name": "symbol",
                  "type": "string"
                },
                {
                  "internalType": "string",
                  "name": "token0Symbol",
                  "type": "string"
                },
                {
                  "internalType": "string",
                  "name": "token1Symbol",
                  "type": "string"
                },
                {
                  "internalType": "uint256",
                  "name": "token0Decimals",
                  "type": "uint256"
                },
                {
                  "internalType": "uint256",
                  "name": "token1Decimals",
                  "type": "uint256"
                },
                {
                  "internalType": "uint256",
                  "name": "totalSupply",
                  "type": "uint256"
                },
                {
                  "internalType": "uint256",
                  "name": "balance",
                  "type": "uint256"
                }
              ],
              "internalType": "struct FactoryTracker.PairData[]",
              "name": "_lp1Data",
              "type": "tuple[]"
            },
            {
              "components": [
                {
                  "internalType": "address",
                  "name": "token0",
                  "type": "address"
                },
                {
                  "internalType": "address",
                  "name": "token1",
                  "type": "address"
                },
                {
                  "internalType": "uint112",
                  "name": "reserve0",
                  "type": "uint112"
                },
                {
                  "internalType": "uint112",
                  "name": "reserve1",
                  "type": "uint112"
                },
                {
                  "internalType": "string",
                  "name": "name",
                  "type": "string"
                },
                {
                  "internalType": "string",
                  "name": "symbol",
                  "type": "string"
                },
                {
                  "internalType": "string",
                  "name": "token0Symbol",
                  "type": "string"
                },
                {
                  "internalType": "string",
                  "name": "token1Symbol",
                  "type": "string"
                },
                {
                  "internalType": "uint256",
                  "name": "token0Decimals",
                  "type": "uint256"
                },
                {
                  "internalType": "uint256",
                  "name": "token1Decimals",
                  "type": "uint256"
                },
                {
                  "internalType": "uint256",
                  "name": "totalSupply",
                  "type": "uint256"
                },
                {
                  "internalType": "uint256",
                  "name": "balance",
                  "type": "uint256"
                }
              ],
              "internalType": "struct FactoryTracker.PairData[]",
              "name": "_lp2Data",
              "type": "tuple[]"
            },
            {
              "components": [
                {
                  "internalType": "address",
                  "name": "token0",
                  "type": "address"
                },
                {
                  "internalType": "address",
                  "name": "token1",
                  "type": "address"
                },
                {
                  "internalType": "uint112",
                  "name": "reserve0",
                  "type": "uint112"
                },
                {
                  "internalType": "uint112",
                  "name": "reserve1",
                  "type": "uint112"
                },
                {
                  "internalType": "string",
                  "name": "name",
                  "type": "string"
                },
                {
                  "internalType": "string",
                  "name": "symbol",
                  "type": "string"
                },
                {
                  "internalType": "string",
                  "name": "token0Symbol",
                  "type": "string"
                },
                {
                  "internalType": "string",
                  "name": "token1Symbol",
                  "type": "string"
                },
                {
                  "internalType": "uint256",
                  "name": "token0Decimals",
                  "type": "uint256"
                },
                {
                  "internalType": "uint256",
                  "name": "token1Decimals",
                  "type": "uint256"
                },
                {
                  "internalType": "uint256",
                  "name": "totalSupply",
                  "type": "uint256"
                },
                {
                  "internalType": "uint256",
                  "name": "balance",
                  "type": "uint256"
                }
              ],
              "internalType": "struct FactoryTracker.PairData[]",
              "name": "_lp3Data",
              "type": "tuple[]"
            }
          ],
          "internalType": "struct FactoryTracker.TokenWithLpsData",
          "name": "",
          "type": "tuple"
        }
      ],
      "stateMutability": "view",
      "type": "function"
    }
  ],
  "bytecode": "0x608060405234801561001057600080fd5b50612323806100206000396000f3fe608060405234801561001057600080fd5b50600436106100575760003560e01c80630f9c5c4d1461005c5780631a788a021461008c57806329d21d6a146100bc5780633a66214c146100ec578063597704381461011c575b600080fd5b610076600480360381019061007191906118a4565b61014c565b6040516100839190611cdf565b60405180910390f35b6100a660048036038101906100a19190611d01565b610561565b6040516100b39190611e47565b60405180910390f35b6100d660048036038101906100d19190611e69565b610b28565b6040516100e39190611e47565b60405180910390f35b61010660048036038101906101019190611e69565b611168565b6040516101139190611f26565b60405180910390f35b61013660048036038101906101319190611d01565b6113b3565b6040516101439190611f26565b60405180910390f35b610154611585565b61015c611585565b60008690508073ffffffffffffffffffffffffffffffffffffffff166318160ddd6040518163ffffffff1660e01b8152600401602060405180830381865afa1580156101ac573d6000803e3d6000fd5b505050506040513d601f19601f820116820180604052508101906101d09190611f74565b8260600181815250508073ffffffffffffffffffffffffffffffffffffffff166370a08231876040518263ffffffff1660e01b81526004016102129190611fb0565b602060405180830381865afa15801561022f573d6000803e3d6000fd5b505050506040513d601f19601f820116820180604052508101906102539190611f74565b8260800181815250508073ffffffffffffffffffffffffffffffffffffffff166306fdde036040518163ffffffff1660e01b8152600401600060405180830381865afa1580156102a7573d6000803e3d6000fd5b505050506040513d6000823e3d601f19601f820116820180604052508101906102d09190612071565b82602001819052508073ffffffffffffffffffffffffffffffffffffffff166395d89b416040518163ffffffff1660e01b8152600401600060405180830381865afa158015610323573d6000803e3d6000fd5b505050506040513d6000823e3d601f19601f8201168201806040525081019061034c9190612071565b826040018190525086826000019073ffffffffffffffffffffffffffffffffffffffff16908173ffffffffffffffffffffffffffffffffffffffff168152505060005b85518110156105535760005b865181101561053f5760008783815181106103b9576103b86120ba565b5b60200260200101519050600081905060008173ffffffffffffffffffffffffffffffffffffffff1663e6a4390588600001518b88815181106103fe576103fd6120ba565b5b60200260200101516040518363ffffffff1660e01b81526004016104239291906120e9565b602060405180830381865afa158015610440573d6000803e3d6000fd5b505050506040513d601f19601f820116820180604052508101906104649190612127565b9050600061047182610561565b905060008614156104a057808860a001518681518110610494576104936120ba565b5b60200260200101819052505b60018614156104cd57808860c0015186815181106104c1576104c06120ba565b5b60200260200101819052505b60028614156104fa57808860e0015186815181106104ee576104ed6120ba565b5b60200260200101819052505b60038614156105285780886101000151868151811061051c5761051b6120ba565b5b60200260200101819052505b50505050808061053790612183565b91505061039b565b50808061054b90612183565b91505061038f565b508192505050949350505050565b6105696115e7565b6105716115e7565b60008390508073ffffffffffffffffffffffffffffffffffffffff16630dfe16816040518163ffffffff1660e01b8152600401602060405180830381865afa1580156105c1573d6000803e3d6000fd5b505050506040513d601f19601f820116820180604052508101906105e59190612127565b826000019073ffffffffffffffffffffffffffffffffffffffff16908173ffffffffffffffffffffffffffffffffffffffff16815250508073ffffffffffffffffffffffffffffffffffffffff1663d21220a76040518163ffffffff1660e01b8152600401602060405180830381865afa158015610667573d6000803e3d6000fd5b505050506040513d601f19601f8201168201806040525081019061068b9190612127565b826020019073ffffffffffffffffffffffffffffffffffffffff16908173ffffffffffffffffffffffffffffffffffffffff168152505060008060008373ffffffffffffffffffffffffffffffffffffffff16630902f1ac6040518163ffffffff1660e01b8152600401606060405180830381865afa158015610712573d6000803e3d6000fd5b505050506040513d601f19601f820116820180604052508101906107369190612234565b63ffffffff169250925092508373ffffffffffffffffffffffffffffffffffffffff166306fdde036040518163ffffffff1660e01b8152600401600060405180830381865afa15801561078d573d6000803e3d6000fd5b505050506040513d6000823e3d601f19601f820116820180604052508101906107b69190612071565b85608001819052508373ffffffffffffffffffffffffffffffffffffffff166395d89b416040518163ffffffff1660e01b8152600401600060405180830381865afa158015610809573d6000803e3d6000fd5b505050506040513d6000823e3d601f19601f820116820180604052508101906108329190612071565b8560a001819052506000856000015190506000866020015190508173ffffffffffffffffffffffffffffffffffffffff166395d89b416040518163ffffffff1660e01b8152600401600060405180830381865afa158015610897573d6000803e3d6000fd5b505050506040513d6000823e3d601f19601f820116820180604052508101906108c09190612071565b8760c001819052508073ffffffffffffffffffffffffffffffffffffffff166395d89b416040518163ffffffff1660e01b8152600401600060405180830381865afa158015610913573d6000803e3d6000fd5b505050506040513d6000823e3d601f19601f8201168201806040525081019061093c9190612071565b8760e001819052508173ffffffffffffffffffffffffffffffffffffffff1663313ce5676040518163ffffffff1660e01b8152600401602060405180830381865afa15801561098f573d6000803e3d6000fd5b505050506040513d601f19601f820116820180604052508101906109b391906122c0565b60ff16876101000181815250508073ffffffffffffffffffffffffffffffffffffffff1663313ce5676040518163ffffffff1660e01b8152600401602060405180830381865afa158015610a0b573d6000803e3d6000fd5b505050506040513d601f19601f82011682018060405250810190610a2f91906122c0565b60ff16876101200181815250508573ffffffffffffffffffffffffffffffffffffffff166318160ddd6040518163ffffffff1660e01b8152600401602060405180830381865afa158015610a87573d6000803e3d6000fd5b505050506040513d601f19601f82011682018060405250810190610aab9190611f74565b876101400181815250506000876101600181815250508487604001906dffffffffffffffffffffffffffff1690816dffffffffffffffffffffffffffff16815250508387606001906dffffffffffffffffffffffffffff1690816dffffffffffffffffffffffffffff168152505086975050505050505050919050565b610b306115e7565b610b386115e7565b60008490508073ffffffffffffffffffffffffffffffffffffffff16630dfe16816040518163ffffffff1660e01b8152600401602060405180830381865afa158015610b88573d6000803e3d6000fd5b505050506040513d601f19601f82011682018060405250810190610bac9190612127565b826000019073ffffffffffffffffffffffffffffffffffffffff16908173ffffffffffffffffffffffffffffffffffffffff16815250508073ffffffffffffffffffffffffffffffffffffffff1663d21220a76040518163ffffffff1660e01b8152600401602060405180830381865afa158015610c2e573d6000803e3d6000fd5b505050506040513d601f19601f82011682018060405250810190610c529190612127565b826020019073ffffffffffffffffffffffffffffffffffffffff16908173ffffffffffffffffffffffffffffffffffffffff168152505060008060008373ffffffffffffffffffffffffffffffffffffffff16630902f1ac6040518163ffffffff1660e01b8152600401606060405180830381865afa158015610cd9573d6000803e3d6000fd5b505050506040513d601f19601f82011682018060405250810190610cfd9190612234565b63ffffffff169250925092508373ffffffffffffffffffffffffffffffffffffffff166306fdde036040518163ffffffff1660e01b8152600401600060405180830381865afa158015610d54573d6000803e3d6000fd5b505050506040513d6000823e3d601f19601f82011682018060405250810190610d7d9190612071565b85608001819052508373ffffffffffffffffffffffffffffffffffffffff166395d89b416040518163ffffffff1660e01b8152600401600060405180830381865afa158015610dd0573d6000803e3d6000fd5b505050506040513d6000823e3d601f19601f82011682018060405250810190610df99190612071565b8560a001819052506000856000015190506000866020015190508173ffffffffffffffffffffffffffffffffffffffff166395d89b416040518163ffffffff1660e01b8152600401600060405180830381865afa158015610e5e573d6000803e3d6000fd5b505050506040513d6000823e3d601f19601f82011682018060405250810190610e879190612071565b8760c001819052508073ffffffffffffffffffffffffffffffffffffffff166395d89b416040518163ffffffff1660e01b8152600401600060405180830381865afa158015610eda573d6000803e3d6000fd5b505050506040513d6000823e3d601f19601f82011682018060405250810190610f039190612071565b8760e001819052508173ffffffffffffffffffffffffffffffffffffffff1663313ce5676040518163ffffffff1660e01b8152600401602060405180830381865afa158015610f56573d6000803e3d6000fd5b505050506040513d601f19601f82011682018060405250810190610f7a91906122c0565b60ff16876101000181815250508073ffffffffffffffffffffffffffffffffffffffff1663313ce5676040518163ffffffff1660e01b8152600401602060405180830381865afa158015610fd2573d6000803e3d6000fd5b505050506040513d601f19601f82011682018060405250810190610ff691906122c0565b60ff16876101200181815250508573ffffffffffffffffffffffffffffffffffffffff166318160ddd6040518163ffffffff1660e01b8152600401602060405180830381865afa15801561104e573d6000803e3d6000fd5b505050506040513d601f19601f820116820180604052508101906110729190611f74565b876101400181815250508573ffffffffffffffffffffffffffffffffffffffff166370a082318a6040518263ffffffff1660e01b81526004016110b59190611fb0565b602060405180830381865afa1580156110d2573d6000803e3d6000fd5b505050506040513d601f19601f820116820180604052508101906110f69190611f74565b876101600181815250508487604001906dffffffffffffffffffffffffffff1690816dffffffffffffffffffffffffffff16815250508387606001906dffffffffffffffffffffffffffff1690816dffffffffffffffffffffffffffff16815250508697505050505050505092915050565b611170611694565b611178611694565b60008490508073ffffffffffffffffffffffffffffffffffffffff166318160ddd6040518163ffffffff1660e01b8152600401602060405180830381865afa1580156111c8573d6000803e3d6000fd5b505050506040513d601f19601f820116820180604052508101906111ec9190611f74565b8260600181815250508073ffffffffffffffffffffffffffffffffffffffff166370a08231856040518263ffffffff1660e01b815260040161122e9190611fb0565b602060405180830381865afa15801561124b573d6000803e3d6000fd5b505050506040513d601f19601f8201168201806040525081019061126f9190611f74565b8260800181815250508073ffffffffffffffffffffffffffffffffffffffff166306fdde036040518163ffffffff1660e01b8152600401600060405180830381865afa1580156112c3573d6000803e3d6000fd5b505050506040513d6000823e3d601f19601f820116820180604052508101906112ec9190612071565b82602001819052508073ffffffffffffffffffffffffffffffffffffffff166395d89b416040518163ffffffff1660e01b8152600401600060405180830381865afa15801561133f573d6000803e3d6000fd5b505050506040513d6000823e3d601f19601f820116820180604052508101906113689190612071565b826040018190525084826000019073ffffffffffffffffffffffffffffffffffffffff16908173ffffffffffffffffffffffffffffffffffffffff1681525050819250505092915050565b6113bb611694565b6113c3611694565b60008390508073ffffffffffffffffffffffffffffffffffffffff166318160ddd6040518163ffffffff1660e01b8152600401602060405180830381865afa158015611413573d6000803e3d6000fd5b505050506040513d601f19601f820116820180604052508101906114379190611f74565b82606001818152505060008260800181815250508073ffffffffffffffffffffffffffffffffffffffff166306fdde036040518163ffffffff1660e01b8152600401600060405180830381865afa158015611496573d6000803e3d6000fd5b505050506040513d6000823e3d601f19601f820116820180604052508101906114bf9190612071565b82602001819052508073ffffffffffffffffffffffffffffffffffffffff166395d89b416040518163ffffffff1660e01b8152600401600060405180830381865afa158015611512573d6000803e3d6000fd5b505050506040513d6000823e3d601f19601f8201168201806040525081019061153b9190612071565b826040018190525083826000019073ffffffffffffffffffffffffffffffffffffffff16908173ffffffffffffffffffffffffffffffffffffffff16815250508192505050919050565b604051806101200160405280600073ffffffffffffffffffffffffffffffffffffffff16815260200160608152602001606081526020016000815260200160008152602001606081526020016060815260200160608152602001606081525090565b604051806101800160405280600073ffffffffffffffffffffffffffffffffffffffff168152602001600073ffffffffffffffffffffffffffffffffffffffff16815260200160006dffffffffffffffffffffffffffff16815260200160006dffffffffffffffffffffffffffff16815260200160608152602001606081526020016060815260200160608152602001600081526020016000815260200160008152602001600081525090565b6040518060a00160405280600073ffffffffffffffffffffffffffffffffffffffff168152602001606081526020016060815260200160008152602001600081525090565b6000604051905090565b600080fd5b600080fd5b600073ffffffffffffffffffffffffffffffffffffffff82169050919050565b6000611718826116ed565b9050919050565b6117288161170d565b811461173357600080fd5b50565b6000813590506117458161171f565b92915050565b600080fd5b6000601f19601f8301169050919050565b7f4e487b7100000000000000000000000000000000000000000000000000000000600052604160045260246000fd5b61179982611750565b810181811067ffffffffffffffff821117156117b8576117b7611761565b5b80604052505050565b60006117cb6116d9565b90506117d78282611790565b919050565b600067ffffffffffffffff8211156117f7576117f6611761565b5b602082029050602081019050919050565b600080fd5b600061182061181b846117dc565b6117c1565b9050808382526020820190506020840283018581111561184357611842611808565b5b835b8181101561186c57806118588882611736565b845260208401935050602081019050611845565b5050509392505050565b600082601f83011261188b5761188a61174b565b5b813561189b84826020860161180d565b91505092915050565b600080600080608085870312156118be576118bd6116e3565b5b60006118cc87828801611736565b94505060206118dd87828801611736565b935050604085013567ffffffffffffffff8111156118fe576118fd6116e8565b5b61190a87828801611876565b925050606085013567ffffffffffffffff81111561192b5761192a6116e8565b5b61193787828801611876565b91505092959194509250565b61194c8161170d565b82525050565b600081519050919050565b600082825260208201905092915050565b60005b8381101561198c578082015181840152602081019050611971565b8381111561199b576000848401525b50505050565b60006119ac82611952565b6119b6818561195d565b93506119c681856020860161196e565b6119cf81611750565b840191505092915050565b6000819050919050565b6119ed816119da565b82525050565b600081519050919050565b600082825260208201905092915050565b6000819050602082019050919050565b60006dffffffffffffffffffffffffffff82169050919050565b611a4281611a1f565b82525050565b600061018083016000830151611a616000860182611943565b506020830151611a746020860182611943565b506040830151611a876040860182611a39565b506060830151611a9a6060860182611a39565b5060808301518482036080860152611ab282826119a1565b91505060a083015184820360a0860152611acc82826119a1565b91505060c083015184820360c0860152611ae682826119a1565b91505060e083015184820360e0860152611b0082826119a1565b915050610100830151611b176101008601826119e4565b50610120830151611b2c6101208601826119e4565b50610140830151611b416101408601826119e4565b50610160830151611b566101608601826119e4565b508091505092915050565b6000611b6d8383611a48565b905092915050565b6000602082019050919050565b6000611b8d826119f3565b611b9781856119fe565b935083602082028501611ba985611a0f565b8060005b85811015611be55784840389528151611bc68582611b61565b9450611bd183611b75565b925060208a01995050600181019050611bad565b50829750879550505050505092915050565b600061012083016000830151611c106000860182611943565b5060208301518482036020860152611c2882826119a1565b91505060408301518482036040860152611c4282826119a1565b9150506060830151611c5760608601826119e4565b506080830151611c6a60808601826119e4565b5060a083015184820360a0860152611c828282611b82565b91505060c083015184820360c0860152611c9c8282611b82565b91505060e083015184820360e0860152611cb68282611b82565b915050610100830151848203610100860152611cd28282611b82565b9150508091505092915050565b60006020820190508181036000830152611cf98184611bf7565b905092915050565b600060208284031215611d1757611d166116e3565b5b6000611d2584828501611736565b91505092915050565b600061018083016000830151611d476000860182611943565b506020830151611d5a6020860182611943565b506040830151611d6d6040860182611a39565b506060830151611d806060860182611a39565b5060808301518482036080860152611d9882826119a1565b91505060a083015184820360a0860152611db282826119a1565b91505060c083015184820360c0860152611dcc82826119a1565b91505060e083015184820360e0860152611de682826119a1565b915050610100830151611dfd6101008601826119e4565b50610120830151611e126101208601826119e4565b50610140830151611e276101408601826119e4565b50610160830151611e3c6101608601826119e4565b508091505092915050565b60006020820190508181036000830152611e618184611d2e565b905092915050565b60008060408385031215611e8057611e7f6116e3565b5b6000611e8e85828601611736565b9250506020611e9f85828601611736565b9150509250929050565b600060a083016000830151611ec16000860182611943565b5060208301518482036020860152611ed982826119a1565b91505060408301518482036040860152611ef382826119a1565b9150506060830151611f0860608601826119e4565b506080830151611f1b60808601826119e4565b508091505092915050565b60006020820190508181036000830152611f408184611ea9565b905092915050565b611f51816119da565b8114611f5c57600080fd5b50565b600081519050611f6e81611f48565b92915050565b600060208284031215611f8a57611f896116e3565b5b6000611f9884828501611f5f565b91505092915050565b611faa8161170d565b82525050565b6000602082019050611fc56000830184611fa1565b92915050565b600080fd5b600067ffffffffffffffff821115611feb57611fea611761565b5b611ff482611750565b9050602081019050919050565b600061201461200f84611fd0565b6117c1565b9050828152602081018484840111156120305761202f611fcb565b5b61203b84828561196e565b509392505050565b600082601f8301126120585761205761174b565b5b8151612068848260208601612001565b91505092915050565b600060208284031215612087576120866116e3565b5b600082015167ffffffffffffffff8111156120a5576120a46116e8565b5b6120b184828501612043565b91505092915050565b7f4e487b7100000000000000000000000000000000000000000000000000000000600052603260045260246000fd5b60006040820190506120fe6000830185611fa1565b61210b6020830184611fa1565b9392505050565b6000815190506121218161171f565b92915050565b60006020828403121561213d5761213c6116e3565b5b600061214b84828501612112565b91505092915050565b7f4e487b7100000000000000000000000000000000000000000000000000000000600052601160045260246000fd5b600061218e826119da565b91507fffffffffffffffffffffffffffffffffffffffffffffffffffffffffffffffff8214156121c1576121c0612154565b5b600182019050919050565b6121d581611a1f565b81146121e057600080fd5b50565b6000815190506121f2816121cc565b92915050565b600063ffffffff82169050919050565b612211816121f8565b811461221c57600080fd5b50565b60008151905061222e81612208565b92915050565b60008060006060848603121561224d5761224c6116e3565b5b600061225b868287016121e3565b935050602061226c868287016121e3565b925050604061227d8682870161221f565b9150509250925092565b600060ff82169050919050565b61229d81612287565b81146122a857600080fd5b50565b6000815190506122ba81612294565b92915050565b6000602082840312156122d6576122d56116e3565b5b60006122e4848285016122ab565b9150509291505056fea2646970667358221220e538ecd50163670283c215550e264e531225f6307d5d5df99be56dac209d1f7b64736f6c634300080a0033",
  "immutableReferences": {},
  "source": "// SPDX-License-Identifier: BUSL-1.1\npragma solidity >=0.5.0;\n\ninterface IUniswapV2Pair {\n    event Approval(\n        address indexed owner,\n        address indexed spender,\n        uint256 value\n    );\n    event Transfer(address indexed from, address indexed to, uint256 value);\n\n    function name() external pure returns (string memory);\n\n    function symbol() external pure returns (string memory);\n\n    function decimals() external pure returns (uint8);\n\n    function totalSupply() external view returns (uint256);\n\n    function balanceOf(address owner) external view returns (uint256);\n\n    function allowance(address owner, address spender)\n        external\n        view\n        returns (uint256);\n\n    function approve(address spender, uint256 value) external returns (bool);\n\n    function transfer(address to, uint256 value) external returns (bool);\n\n    function transferFrom(\n        address from,\n        address to,\n        uint256 value\n    ) external returns (bool);\n\n    function DOMAIN_SEPARATOR() external view returns (bytes32);\n\n    function PERMIT_TYPEHASH() external pure returns (bytes32);\n\n    function nonces(address owner) external view returns (uint256);\n\n    function permit(\n        address owner,\n        address spender,\n        uint256 value,\n        uint256 deadline,\n        uint8 v,\n        bytes32 r,\n        bytes32 s\n    ) external;\n\n    event Mint(address indexed sender, uint256 amount0, uint256 amount1);\n    event Burn(\n        address indexed sender,\n        uint256 amount0,\n        uint256 amount1,\n        address indexed to\n    );\n    event Swap(\n        address indexed sender,\n        uint256 amount0In,\n        uint256 amount1In,\n        uint256 amount0Out,\n        uint256 amount1Out,\n        address indexed to\n    );\n    event Sync(uint112 reserve0, uint112 reserve1);\n\n    function MINIMUM_LIQUIDITY() external pure returns (uint256);\n\n    function factory() external view returns (address);\n\n    function token0() external view returns (address);\n\n    function token1() external view returns (address);\n\n    function getReserves()\n        external\n        view\n        returns (\n            uint112 reserve0,\n            uint112 reserve1,\n            uint32 blockTimestampLast\n        );\n\n    function price0CumulativeLast() external view returns (uint256);\n\n    function price1CumulativeLast() external view returns (uint256);\n\n    function kLast() external view returns (uint256);\n\n    function mint(address to) external returns (uint256 liquidity);\n\n    function burn(address to)\n        external\n        returns (uint256 amount0, uint256 amount1);\n\n    function swap(\n        uint256 amount0Out,\n        uint256 amount1Out,\n        address to,\n        bytes calldata data\n    ) external;\n\n    function skim(address to) external;\n\n    function sync() external;\n\n    function initialize(address, address) external;\n}\n\ninterface IERC20 {\n    event Approval(\n        address indexed owner,\n        address indexed spender,\n        uint256 value\n    );\n    event Transfer(address indexed from, address indexed to, uint256 value);\n\n    function name() external view returns (string memory);\n\n    function symbol() external view returns (string memory);\n\n    function decimals() external view returns (uint8);\n\n    function totalSupply() external view returns (uint256);\n\n    function balanceOf(address owner) external view returns (uint256);\n\n    function allowance(address owner, address spender)\n        external\n        view\n        returns (uint256);\n\n    function approve(address spender, uint256 value) external returns (bool);\n\n    function transfer(address to, uint256 value) external returns (bool);\n\n    function transferFrom(\n        address from,\n        address to,\n        uint256 value\n    ) external returns (bool);\n}\n\ninterface IUniswapV2Factory {\n    event PairCreated(\n        address indexed token0,\n        address indexed token1,\n        address pair,\n        uint256\n    );\n\n    function feeTo() external view returns (address);\n\n    function feeToSetter() external view returns (address);\n\n    function getPair(address tokenA, address tokenB)\n        external\n        view\n        returns (address pair);\n\n    function allPairs(uint256) external view returns (address pair);\n\n    function allPairsLength() external view returns (uint256);\n\n    function createPair(address tokenA, address tokenB)\n        external\n        returns (address pair);\n\n    function setFeeTo(address) external;\n\n    function setFeeToSetter(address) external;\n}\n\ncontract FactoryTracker {\n    // mapping(string => uint256) myMapping;\n\n    struct PairData {\n        address token0;\n        address token1;\n        uint112 reserve0;\n        uint112 reserve1;\n        string name;\n        string symbol;\n        string token0Symbol;\n        string token1Symbol;\n        uint256 token0Decimals;\n        uint256 token1Decimals;\n        uint256 totalSupply;\n        uint256 balance;\n    }\n    struct TokenData {\n        address _tokenAddress;\n        string name;\n        string symbol;\n        uint256 totalSupply;\n        uint256 balance;\n    }\n    mapping(uint256 => PairData[]) lpsMap;\n\n    struct TokenWithLpsData {\n        address _tokenAddress;\n        string name;\n        string symbol;\n        uint256 totalSupply;\n        uint256 balance;\n        PairData[] _lp0Data;\n        PairData[] _lp1Data;\n        PairData[] _lp2Data;\n        PairData[] _lp3Data;\n    }\n\n    function getPair(address _pairAddress)\n        public\n        view\n        returns (PairData memory)\n    {\n        PairData memory newPairData;\n        IUniswapV2Pair newPair = IUniswapV2Pair(_pairAddress);\n        newPairData.token0 = newPair.token0();\n        newPairData.token1 = newPair.token1();\n\n        (uint112 reserve0, uint112 reserve1, uint256 _x) = newPair\n            .getReserves();\n        // uint112 reserve0 = newPair.getReserves();\n        // uint256 reserve1 = newPair.getReserves()[1];\n\n        newPairData.name = newPair.name();\n        newPairData.symbol = newPair.symbol();\n        IERC20 _token0 = IERC20(newPairData.token0);\n        IERC20 _token1 = IERC20(newPairData.token1);\n        newPairData.token0Symbol = _token0.symbol();\n        newPairData.token1Symbol = _token1.symbol();\n        newPairData.token0Decimals = _token0.decimals();\n        newPairData.token1Decimals = _token1.decimals();\n        newPairData.totalSupply = newPair.totalSupply();\n        newPairData.balance = 0;\n        newPairData.reserve0 = reserve0;\n        newPairData.reserve1 = reserve1;\n\n        // PairData memory newPairData = PairData(\n        //     token0,\n        //     token1,\n        //     reserve0,\n        //     reserve1,\n        //     name,\n        //     symbol,\n        //     token0Symbol,\n        //     token1Symbol,\n        //     token0Decimals,\n        //     token1Decimals,\n        //     totalSupply,\n        //     balance\n        // );\n        return newPairData;\n    }\n\n    function getPairWithBalanceOf(address _pairAddress, address _account)\n        public\n        view\n        returns (PairData memory)\n    {\n        PairData memory newPairData;\n\n        IUniswapV2Pair newPair = IUniswapV2Pair(_pairAddress);\n        newPairData.token0 = newPair.token0();\n        newPairData.token1 = newPair.token1();\n\n        (uint112 reserve0, uint112 reserve1, uint256 _x) = newPair\n            .getReserves();\n        // uint112 reserve0 = newPair.getReserves();\n        // uint256 reserve1 = newPair.getReserves()[1];\n\n        newPairData.name = newPair.name();\n        newPairData.symbol = newPair.symbol();\n        IERC20 _token0 = IERC20(newPairData.token0);\n        IERC20 _token1 = IERC20(newPairData.token1);\n        newPairData.token0Symbol = _token0.symbol();\n        newPairData.token1Symbol = _token1.symbol();\n        newPairData.token0Decimals = _token0.decimals();\n        newPairData.token1Decimals = _token1.decimals();\n        newPairData.totalSupply = newPair.totalSupply();\n        newPairData.balance = newPair.balanceOf(_account);\n        newPairData.reserve0 = reserve0;\n        newPairData.reserve1 = reserve1;\n\n        return newPairData;\n    }\n\n    function getToken(address _tokenAddress)\n        public\n        view\n        returns (TokenData memory)\n    {\n        TokenData memory newTokenData;\n        IERC20 newToken = IERC20(_tokenAddress);\n        newTokenData.totalSupply = newToken.totalSupply();\n        newTokenData.balance = 0;\n        newTokenData.name = newToken.name();\n        newTokenData.symbol = newToken.symbol();\n        newTokenData._tokenAddress = _tokenAddress;\n\n        return newTokenData;\n    }\n\n    function getTokenWithBalanceOf(address _tokenAddress, address _account)\n        public\n        view\n        returns (TokenData memory)\n    {\n        TokenData memory newTokenData;\n        IERC20 newToken = IERC20(_tokenAddress);\n        newTokenData.totalSupply = newToken.totalSupply();\n        newTokenData.balance = newToken.balanceOf(_account);\n        newTokenData.name = newToken.name();\n        newTokenData.symbol = newToken.symbol();\n        newTokenData._tokenAddress = _tokenAddress;\n\n        return newTokenData;\n    }\n\n    function getTokenWithBalanceOfAndLps(\n        address _tokenAddress,\n        address _account,\n        address[] memory _factories,\n        address[] memory _quoteTokens\n    ) public view returns (TokenWithLpsData memory) {\n        TokenWithLpsData memory newTokenData;\n        IERC20 newToken = IERC20(_tokenAddress);\n        newTokenData.totalSupply = newToken.totalSupply();\n        newTokenData.balance = newToken.balanceOf(_account);\n        newTokenData.name = newToken.name();\n        newTokenData.symbol = newToken.symbol();\n        newTokenData._tokenAddress = _tokenAddress;\n        // address[] memory factoriesAddresses = _factories;\n        // address[] memory quoteTokenAddresses = _quoteTokens;\n\n        for (uint256 index = 0; index < _factories.length; index++) {\n            for (\n                uint256 index2 = 0;\n                index2 < _factories.length;\n                index2++\n            ) {\n                address uniFactoryAddress = _factories[index];\n                IUniswapV2Factory iUniFactory = IUniswapV2Factory(\n                    uniFactoryAddress\n                );\n                address _lp = iUniFactory.getPair(\n                    newTokenData._tokenAddress,\n                    _quoteTokens[index]\n                );\n                PairData memory newPairData = getPair(_lp);\n                if (index == 0) {\n                    newTokenData._lp0Data[index2] = newPairData;\n                }\n                if (index == 1) {\n                    newTokenData._lp1Data[index2] = newPairData;\n                }\n                if (index == 2) {\n                    newTokenData._lp2Data[index2] = newPairData;\n                }\n                if (index == 3) {\n                    newTokenData._lp3Data[index2] = newPairData;\n                }\n            }\n        }\n\n        return newTokenData;\n    }\n}\n",
  "sourcePath": "/Users/saurabhacademic/Desktop/Projects v2/Portfolio-contracts/contracts/FactoryTracker.sol",
  "compiler": {
    "name": "solc",
    "version": "0.8.10+commit.fc410830.Emscripten.clang"
  },
  "schemaVersion": "3.4.4",
  "updatedAt": "2022-06-06T12:05:12.012Z",
  "devdoc": {
    "kind": "dev",
    "methods": {},
    "version": 1
  },
  "userdoc": {
    "kind": "user",
    "methods": {},
    "version": 1
  }
}