{
  "contractName": "FactoryTracker",
  "abi": [
    {
      "inputs": [
        {
          "internalType": "address",
          "name": "_pairAddress",
          "type": "address"
        }
      ],
      "name": "getPair",
      "outputs": [
        {
          "components": [
            {
              "internalType": "address",
              "name": "token0",
              "type": "address"
            },
            {
              "internalType": "address",
              "name": "token1",
              "type": "address"
            },
            {
              "internalType": "uint112",
              "name": "reserve0",
              "type": "uint112"
            },
            {
              "internalType": "uint112",
              "name": "reserve1",
              "type": "uint112"
            },
            {
              "internalType": "string",
              "name": "name",
              "type": "string"
            },
            {
              "internalType": "string",
              "name": "symbol",
              "type": "string"
            },
            {
              "internalType": "string",
              "name": "token0Symbol",
              "type": "string"
            },
            {
              "internalType": "string",
              "name": "token1Symbol",
              "type": "string"
            },
            {
              "internalType": "uint256",
              "name": "token0Decimals",
              "type": "uint256"
            },
            {
              "internalType": "uint256",
              "name": "token1Decimals",
              "type": "uint256"
            },
            {
              "internalType": "uint256",
              "name": "totalSupply",
              "type": "uint256"
            },
            {
              "internalType": "uint256",
              "name": "balance",
              "type": "uint256"
            }
          ],
          "internalType": "struct FactoryTracker.PairData",
          "name": "",
          "type": "tuple"
        }
      ],
      "stateMutability": "view",
      "type": "function"
    },
    {
      "inputs": [
        {
          "internalType": "address",
          "name": "_pairAddress",
          "type": "address"
        },
        {
          "internalType": "address",
          "name": "_account",
          "type": "address"
        }
      ],
      "name": "getPairWithBalanceOf",
      "outputs": [
        {
          "components": [
            {
              "internalType": "address",
              "name": "token0",
              "type": "address"
            },
            {
              "internalType": "address",
              "name": "token1",
              "type": "address"
            },
            {
              "internalType": "uint112",
              "name": "reserve0",
              "type": "uint112"
            },
            {
              "internalType": "uint112",
              "name": "reserve1",
              "type": "uint112"
            },
            {
              "internalType": "string",
              "name": "name",
              "type": "string"
            },
            {
              "internalType": "string",
              "name": "symbol",
              "type": "string"
            },
            {
              "internalType": "string",
              "name": "token0Symbol",
              "type": "string"
            },
            {
              "internalType": "string",
              "name": "token1Symbol",
              "type": "string"
            },
            {
              "internalType": "uint256",
              "name": "token0Decimals",
              "type": "uint256"
            },
            {
              "internalType": "uint256",
              "name": "token1Decimals",
              "type": "uint256"
            },
            {
              "internalType": "uint256",
              "name": "totalSupply",
              "type": "uint256"
            },
            {
              "internalType": "uint256",
              "name": "balance",
              "type": "uint256"
            }
          ],
          "internalType": "struct FactoryTracker.PairData",
          "name": "",
          "type": "tuple"
        }
      ],
      "stateMutability": "view",
      "type": "function"
    },
    {
      "inputs": [
        {
          "internalType": "address",
          "name": "_tokenAddress",
          "type": "address"
        }
      ],
      "name": "getToken",
      "outputs": [
        {
          "components": [
            {
              "internalType": "address",
              "name": "_tokenAddress",
              "type": "address"
            },
            {
              "internalType": "string",
              "name": "name",
              "type": "string"
            },
            {
              "internalType": "string",
              "name": "symbol",
              "type": "string"
            },
            {
              "internalType": "uint256",
              "name": "totalSupply",
              "type": "uint256"
            },
            {
              "internalType": "uint256",
              "name": "balance",
              "type": "uint256"
            }
          ],
          "internalType": "struct FactoryTracker.TokenData",
          "name": "",
          "type": "tuple"
        }
      ],
      "stateMutability": "view",
      "type": "function"
    },
    {
      "inputs": [
        {
          "internalType": "address",
          "name": "_tokenAddress",
          "type": "address"
        },
        {
          "internalType": "address",
          "name": "_account",
          "type": "address"
        }
      ],
      "name": "getTokenWithBalanceOf",
      "outputs": [
        {
          "components": [
            {
              "internalType": "address",
              "name": "_tokenAddress",
              "type": "address"
            },
            {
              "internalType": "string",
              "name": "name",
              "type": "string"
            },
            {
              "internalType": "string",
              "name": "symbol",
              "type": "string"
            },
            {
              "internalType": "uint256",
              "name": "totalSupply",
              "type": "uint256"
            },
            {
              "internalType": "uint256",
              "name": "balance",
              "type": "uint256"
            }
          ],
          "internalType": "struct FactoryTracker.TokenData",
          "name": "",
          "type": "tuple"
        }
      ],
      "stateMutability": "view",
      "type": "function"
    },
    {
      "inputs": [
        {
          "internalType": "address",
          "name": "_tokenAddress",
          "type": "address"
        },
        {
          "internalType": "address",
          "name": "_account",
          "type": "address"
        },
        {
          "internalType": "address[]",
          "name": "_factories",
          "type": "address[]"
        },
        {
          "internalType": "address[]",
          "name": "_quoteTokens",
          "type": "address[]"
        }
      ],
      "name": "getTokenWithBalanceOfAndLps",
      "outputs": [
        {
          "components": [
            {
              "internalType": "address",
              "name": "_tokenAddress",
              "type": "address"
            },
            {
              "internalType": "string",
              "name": "name",
              "type": "string"
            },
            {
              "internalType": "string",
              "name": "symbol",
              "type": "string"
            },
            {
              "internalType": "uint256",
              "name": "totalSupply",
              "type": "uint256"
            },
            {
              "internalType": "uint256",
              "name": "balance",
              "type": "uint256"
            }
          ],
          "internalType": "struct FactoryTracker.TokenData",
          "name": "_tokenData",
          "type": "tuple"
        },
        {
          "components": [
            {
              "internalType": "address",
              "name": "token0",
              "type": "address"
            },
            {
              "internalType": "address",
              "name": "token1",
              "type": "address"
            },
            {
              "internalType": "uint112",
              "name": "reserve0",
              "type": "uint112"
            },
            {
              "internalType": "uint112",
              "name": "reserve1",
              "type": "uint112"
            },
            {
              "internalType": "string",
              "name": "name",
              "type": "string"
            },
            {
              "internalType": "string",
              "name": "symbol",
              "type": "string"
            },
            {
              "internalType": "string",
              "name": "token0Symbol",
              "type": "string"
            },
            {
              "internalType": "string",
              "name": "token1Symbol",
              "type": "string"
            },
            {
              "internalType": "uint256",
              "name": "token0Decimals",
              "type": "uint256"
            },
            {
              "internalType": "uint256",
              "name": "token1Decimals",
              "type": "uint256"
            },
            {
              "internalType": "uint256",
              "name": "totalSupply",
              "type": "uint256"
            },
            {
              "internalType": "uint256",
              "name": "balance",
              "type": "uint256"
            }
          ],
          "internalType": "struct FactoryTracker.PairData[]",
          "name": "_pair0",
          "type": "tuple[]"
        },
        {
          "components": [
            {
              "internalType": "address",
              "name": "token0",
              "type": "address"
            },
            {
              "internalType": "address",
              "name": "token1",
              "type": "address"
            },
            {
              "internalType": "uint112",
              "name": "reserve0",
              "type": "uint112"
            },
            {
              "internalType": "uint112",
              "name": "reserve1",
              "type": "uint112"
            },
            {
              "internalType": "string",
              "name": "name",
              "type": "string"
            },
            {
              "internalType": "string",
              "name": "symbol",
              "type": "string"
            },
            {
              "internalType": "string",
              "name": "token0Symbol",
              "type": "string"
            },
            {
              "internalType": "string",
              "name": "token1Symbol",
              "type": "string"
            },
            {
              "internalType": "uint256",
              "name": "token0Decimals",
              "type": "uint256"
            },
            {
              "internalType": "uint256",
              "name": "token1Decimals",
              "type": "uint256"
            },
            {
              "internalType": "uint256",
              "name": "totalSupply",
              "type": "uint256"
            },
            {
              "internalType": "uint256",
              "name": "balance",
              "type": "uint256"
            }
          ],
          "internalType": "struct FactoryTracker.PairData[]",
          "name": "_pair1",
          "type": "tuple[]"
        },
        {
          "components": [
            {
              "internalType": "address",
              "name": "token0",
              "type": "address"
            },
            {
              "internalType": "address",
              "name": "token1",
              "type": "address"
            },
            {
              "internalType": "uint112",
              "name": "reserve0",
              "type": "uint112"
            },
            {
              "internalType": "uint112",
              "name": "reserve1",
              "type": "uint112"
            },
            {
              "internalType": "string",
              "name": "name",
              "type": "string"
            },
            {
              "internalType": "string",
              "name": "symbol",
              "type": "string"
            },
            {
              "internalType": "string",
              "name": "token0Symbol",
              "type": "string"
            },
            {
              "internalType": "string",
              "name": "token1Symbol",
              "type": "string"
            },
            {
              "internalType": "uint256",
              "name": "token0Decimals",
              "type": "uint256"
            },
            {
              "internalType": "uint256",
              "name": "token1Decimals",
              "type": "uint256"
            },
            {
              "internalType": "uint256",
              "name": "totalSupply",
              "type": "uint256"
            },
            {
              "internalType": "uint256",
              "name": "balance",
              "type": "uint256"
            }
          ],
          "internalType": "struct FactoryTracker.PairData[]",
          "name": "_pair2",
          "type": "tuple[]"
        },
        {
          "components": [
            {
              "internalType": "address",
              "name": "token0",
              "type": "address"
            },
            {
              "internalType": "address",
              "name": "token1",
              "type": "address"
            },
            {
              "internalType": "uint112",
              "name": "reserve0",
              "type": "uint112"
            },
            {
              "internalType": "uint112",
              "name": "reserve1",
              "type": "uint112"
            },
            {
              "internalType": "string",
              "name": "name",
              "type": "string"
            },
            {
              "internalType": "string",
              "name": "symbol",
              "type": "string"
            },
            {
              "internalType": "string",
              "name": "token0Symbol",
              "type": "string"
            },
            {
              "internalType": "string",
              "name": "token1Symbol",
              "type": "string"
            },
            {
              "internalType": "uint256",
              "name": "token0Decimals",
              "type": "uint256"
            },
            {
              "internalType": "uint256",
              "name": "token1Decimals",
              "type": "uint256"
            },
            {
              "internalType": "uint256",
              "name": "totalSupply",
              "type": "uint256"
            },
            {
              "internalType": "uint256",
              "name": "balance",
              "type": "uint256"
            }
          ],
          "internalType": "struct FactoryTracker.PairData[]",
          "name": "_pair3",
          "type": "tuple[]"
        }
      ],
      "stateMutability": "view",
      "type": "function"
    }
  ],
  "bytecode": "0x608060405234801561001057600080fd5b506121c7806100206000396000f3fe608060405234801561001057600080fd5b50600436106100575760003560e01c80630f9c5c4d1461005c5780631a788a021461009057806329d21d6a146100c05780633a66214c146100f05780635977043814610120575b600080fd5b610076600480360381019061007191906117dc565b610150565b604051610087959493929190611bac565b60405180910390f35b6100aa60048036038101906100a59190611c22565b6104fb565b6040516100b79190611d68565b60405180910390f35b6100da60048036038101906100d59190611d8a565b610ac2565b6040516100e79190611d68565b60405180910390f35b61010a60048036038101906101059190611d8a565b611102565b6040516101179190611dca565b60405180910390f35b61013a60048036038101906101359190611c22565b61134d565b6040516101479190611dca565b60405180910390f35b61015861151f565b606080606080600061016a8a8a611102565b90506000885167ffffffffffffffff81111561018957610188611699565b5b6040519080825280602002602001820160405280156101c257816020015b6101af611564565b8152602001906001900390816101a75790505b5090506000895167ffffffffffffffff8111156101e2576101e1611699565b5b60405190808252806020026020018201604052801561021b57816020015b610208611564565b8152602001906001900390816102005790505b50905060008a5167ffffffffffffffff81111561023b5761023a611699565b5b60405190808252806020026020018201604052801561027457816020015b610261611564565b8152602001906001900390816102595790505b50905060008b5167ffffffffffffffff81111561029457610293611699565b5b6040519080825280602002602001820160405280156102cd57816020015b6102ba611564565b8152602001906001900390816102b25790505b50905060008b905060008d9050600080600080600090505b85518110156104d65760005b85518110156104c25785818151811061030d5761030c611dec565b5b602002602001015194508493508373ffffffffffffffffffffffffffffffffffffffff1663e6a439058d6000015189858151811061034e5761034d611dec565b5b60200260200101516040518363ffffffff1660e01b8152600401610373929190611e2a565b602060405180830381865afa158015610390573d6000803e3d6000fd5b505050506040513d601f19601f820116820180604052508101906103b49190611e68565b9250600073ffffffffffffffffffffffffffffffffffffffff168373ffffffffffffffffffffffffffffffffffffffff16146104af57600082141561041b576103fc836104fb565b8b828151811061040f5761040e611dec565b5b60200260200101819052505b600182141561044c5761042d836104fb565b8a82815181106104405761043f611dec565b5b60200260200101819052505b600282141561047d5761045e836104fb565b89828151811061047157610470611dec565b5b60200260200101819052505b60038214156104ae5761048f836104fb565b8882815181106104a2576104a1611dec565b5b60200260200101819052505b5b80806104ba90611ec4565b9150506102f1565b5080806104ce90611ec4565b9150506102e5565b5089898989899e509e509e509e509e5050505050505050505050945094509450945094565b610503611564565b61050b611564565b60008390508073ffffffffffffffffffffffffffffffffffffffff16630dfe16816040518163ffffffff1660e01b8152600401602060405180830381865afa15801561055b573d6000803e3d6000fd5b505050506040513d601f19601f8201168201806040525081019061057f9190611e68565b826000019073ffffffffffffffffffffffffffffffffffffffff16908173ffffffffffffffffffffffffffffffffffffffff16815250508073ffffffffffffffffffffffffffffffffffffffff1663d21220a76040518163ffffffff1660e01b8152600401602060405180830381865afa158015610601573d6000803e3d6000fd5b505050506040513d601f19601f820116820180604052508101906106259190611e68565b826020019073ffffffffffffffffffffffffffffffffffffffff16908173ffffffffffffffffffffffffffffffffffffffff168152505060008060008373ffffffffffffffffffffffffffffffffffffffff16630902f1ac6040518163ffffffff1660e01b8152600401606060405180830381865afa1580156106ac573d6000803e3d6000fd5b505050506040513d601f19601f820116820180604052508101906106d09190611f75565b63ffffffff169250925092508373ffffffffffffffffffffffffffffffffffffffff166306fdde036040518163ffffffff1660e01b8152600401600060405180830381865afa158015610727573d6000803e3d6000fd5b505050506040513d6000823e3d601f19601f82011682018060405250810190610750919061206e565b85608001819052508373ffffffffffffffffffffffffffffffffffffffff166395d89b416040518163ffffffff1660e01b8152600401600060405180830381865afa1580156107a3573d6000803e3d6000fd5b505050506040513d6000823e3d601f19601f820116820180604052508101906107cc919061206e565b8560a001819052506000856000015190506000866020015190508173ffffffffffffffffffffffffffffffffffffffff166395d89b416040518163ffffffff1660e01b8152600401600060405180830381865afa158015610831573d6000803e3d6000fd5b505050506040513d6000823e3d601f19601f8201168201806040525081019061085a919061206e565b8760c001819052508073ffffffffffffffffffffffffffffffffffffffff166395d89b416040518163ffffffff1660e01b8152600401600060405180830381865afa1580156108ad573d6000803e3d6000fd5b505050506040513d6000823e3d601f19601f820116820180604052508101906108d6919061206e565b8760e001819052508173ffffffffffffffffffffffffffffffffffffffff1663313ce5676040518163ffffffff1660e01b8152600401602060405180830381865afa158015610929573d6000803e3d6000fd5b505050506040513d601f19601f8201168201806040525081019061094d91906120f0565b60ff16876101000181815250508073ffffffffffffffffffffffffffffffffffffffff1663313ce5676040518163ffffffff1660e01b8152600401602060405180830381865afa1580156109a5573d6000803e3d6000fd5b505050506040513d601f19601f820116820180604052508101906109c991906120f0565b60ff16876101200181815250508573ffffffffffffffffffffffffffffffffffffffff166318160ddd6040518163ffffffff1660e01b8152600401602060405180830381865afa158015610a21573d6000803e3d6000fd5b505050506040513d601f19601f82011682018060405250810190610a459190612149565b876101400181815250506000876101600181815250508487604001906dffffffffffffffffffffffffffff1690816dffffffffffffffffffffffffffff16815250508387606001906dffffffffffffffffffffffffffff1690816dffffffffffffffffffffffffffff168152505086975050505050505050919050565b610aca611564565b610ad2611564565b60008490508073ffffffffffffffffffffffffffffffffffffffff16630dfe16816040518163ffffffff1660e01b8152600401602060405180830381865afa158015610b22573d6000803e3d6000fd5b505050506040513d601f19601f82011682018060405250810190610b469190611e68565b826000019073ffffffffffffffffffffffffffffffffffffffff16908173ffffffffffffffffffffffffffffffffffffffff16815250508073ffffffffffffffffffffffffffffffffffffffff1663d21220a76040518163ffffffff1660e01b8152600401602060405180830381865afa158015610bc8573d6000803e3d6000fd5b505050506040513d601f19601f82011682018060405250810190610bec9190611e68565b826020019073ffffffffffffffffffffffffffffffffffffffff16908173ffffffffffffffffffffffffffffffffffffffff168152505060008060008373ffffffffffffffffffffffffffffffffffffffff16630902f1ac6040518163ffffffff1660e01b8152600401606060405180830381865afa158015610c73573d6000803e3d6000fd5b505050506040513d601f19601f82011682018060405250810190610c979190611f75565b63ffffffff169250925092508373ffffffffffffffffffffffffffffffffffffffff166306fdde036040518163ffffffff1660e01b8152600401600060405180830381865afa158015610cee573d6000803e3d6000fd5b505050506040513d6000823e3d601f19601f82011682018060405250810190610d17919061206e565b85608001819052508373ffffffffffffffffffffffffffffffffffffffff166395d89b416040518163ffffffff1660e01b8152600401600060405180830381865afa158015610d6a573d6000803e3d6000fd5b505050506040513d6000823e3d601f19601f82011682018060405250810190610d93919061206e565b8560a001819052506000856000015190506000866020015190508173ffffffffffffffffffffffffffffffffffffffff166395d89b416040518163ffffffff1660e01b8152600401600060405180830381865afa158015610df8573d6000803e3d6000fd5b505050506040513d6000823e3d601f19601f82011682018060405250810190610e21919061206e565b8760c001819052508073ffffffffffffffffffffffffffffffffffffffff166395d89b416040518163ffffffff1660e01b8152600401600060405180830381865afa158015610e74573d6000803e3d6000fd5b505050506040513d6000823e3d601f19601f82011682018060405250810190610e9d919061206e565b8760e001819052508173ffffffffffffffffffffffffffffffffffffffff1663313ce5676040518163ffffffff1660e01b8152600401602060405180830381865afa158015610ef0573d6000803e3d6000fd5b505050506040513d601f19601f82011682018060405250810190610f1491906120f0565b60ff16876101000181815250508073ffffffffffffffffffffffffffffffffffffffff1663313ce5676040518163ffffffff1660e01b8152600401602060405180830381865afa158015610f6c573d6000803e3d6000fd5b505050506040513d601f19601f82011682018060405250810190610f9091906120f0565b60ff16876101200181815250508573ffffffffffffffffffffffffffffffffffffffff166318160ddd6040518163ffffffff1660e01b8152600401602060405180830381865afa158015610fe8573d6000803e3d6000fd5b505050506040513d601f19601f8201168201806040525081019061100c9190612149565b876101400181815250508573ffffffffffffffffffffffffffffffffffffffff166370a082318a6040518263ffffffff1660e01b815260040161104f9190612176565b602060405180830381865afa15801561106c573d6000803e3d6000fd5b505050506040513d601f19601f820116820180604052508101906110909190612149565b876101600181815250508487604001906dffffffffffffffffffffffffffff1690816dffffffffffffffffffffffffffff16815250508387606001906dffffffffffffffffffffffffffff1690816dffffffffffffffffffffffffffff16815250508697505050505050505092915050565b61110a61151f565b61111261151f565b60008490508073ffffffffffffffffffffffffffffffffffffffff166318160ddd6040518163ffffffff1660e01b8152600401602060405180830381865afa158015611162573d6000803e3d6000fd5b505050506040513d601f19601f820116820180604052508101906111869190612149565b8260600181815250508073ffffffffffffffffffffffffffffffffffffffff166370a08231856040518263ffffffff1660e01b81526004016111c89190612176565b602060405180830381865afa1580156111e5573d6000803e3d6000fd5b505050506040513d601f19601f820116820180604052508101906112099190612149565b8260800181815250508073ffffffffffffffffffffffffffffffffffffffff166306fdde036040518163ffffffff1660e01b8152600401600060405180830381865afa15801561125d573d6000803e3d6000fd5b505050506040513d6000823e3d601f19601f82011682018060405250810190611286919061206e565b82602001819052508073ffffffffffffffffffffffffffffffffffffffff166395d89b416040518163ffffffff1660e01b8152600401600060405180830381865afa1580156112d9573d6000803e3d6000fd5b505050506040513d6000823e3d601f19601f82011682018060405250810190611302919061206e565b826040018190525084826000019073ffffffffffffffffffffffffffffffffffffffff16908173ffffffffffffffffffffffffffffffffffffffff1681525050819250505092915050565b61135561151f565b61135d61151f565b60008390508073ffffffffffffffffffffffffffffffffffffffff166318160ddd6040518163ffffffff1660e01b8152600401602060405180830381865afa1580156113ad573d6000803e3d6000fd5b505050506040513d601f19601f820116820180604052508101906113d19190612149565b82606001818152505060008260800181815250508073ffffffffffffffffffffffffffffffffffffffff166306fdde036040518163ffffffff1660e01b8152600401600060405180830381865afa158015611430573d6000803e3d6000fd5b505050506040513d6000823e3d601f19601f82011682018060405250810190611459919061206e565b82602001819052508073ffffffffffffffffffffffffffffffffffffffff166395d89b416040518163ffffffff1660e01b8152600401600060405180830381865afa1580156114ac573d6000803e3d6000fd5b505050506040513d6000823e3d601f19601f820116820180604052508101906114d5919061206e565b826040018190525083826000019073ffffffffffffffffffffffffffffffffffffffff16908173ffffffffffffffffffffffffffffffffffffffff16815250508192505050919050565b6040518060a00160405280600073ffffffffffffffffffffffffffffffffffffffff168152602001606081526020016060815260200160008152602001600081525090565b604051806101800160405280600073ffffffffffffffffffffffffffffffffffffffff168152602001600073ffffffffffffffffffffffffffffffffffffffff16815260200160006dffffffffffffffffffffffffffff16815260200160006dffffffffffffffffffffffffffff16815260200160608152602001606081526020016060815260200160608152602001600081526020016000815260200160008152602001600081525090565b6000604051905090565b600080fd5b600080fd5b600073ffffffffffffffffffffffffffffffffffffffff82169050919050565b600061165082611625565b9050919050565b61166081611645565b811461166b57600080fd5b50565b60008135905061167d81611657565b92915050565b600080fd5b6000601f19601f8301169050919050565b7f4e487b7100000000000000000000000000000000000000000000000000000000600052604160045260246000fd5b6116d182611688565b810181811067ffffffffffffffff821117156116f0576116ef611699565b5b80604052505050565b6000611703611611565b905061170f82826116c8565b919050565b600067ffffffffffffffff82111561172f5761172e611699565b5b602082029050602081019050919050565b600080fd5b600061175861175384611714565b6116f9565b9050808382526020820190506020840283018581111561177b5761177a611740565b5b835b818110156117a45780611790888261166e565b84526020840193505060208101905061177d565b5050509392505050565b600082601f8301126117c3576117c2611683565b5b81356117d3848260208601611745565b91505092915050565b600080600080608085870312156117f6576117f561161b565b5b60006118048782880161166e565b94505060206118158782880161166e565b935050604085013567ffffffffffffffff81111561183657611835611620565b5b611842878288016117ae565b925050606085013567ffffffffffffffff81111561186357611862611620565b5b61186f878288016117ae565b91505092959194509250565b61188481611645565b82525050565b600081519050919050565b600082825260208201905092915050565b60005b838110156118c45780820151818401526020810190506118a9565b838111156118d3576000848401525b50505050565b60006118e48261188a565b6118ee8185611895565b93506118fe8185602086016118a6565b61190781611688565b840191505092915050565b6000819050919050565b61192581611912565b82525050565b600060a083016000830151611943600086018261187b565b506020830151848203602086015261195b82826118d9565b9150506040830151848203604086015261197582826118d9565b915050606083015161198a606086018261191c565b50608083015161199d608086018261191c565b508091505092915050565b600081519050919050565b600082825260208201905092915050565b6000819050602082019050919050565b60006dffffffffffffffffffffffffffff82169050919050565b6119f7816119d4565b82525050565b600061018083016000830151611a16600086018261187b565b506020830151611a29602086018261187b565b506040830151611a3c60408601826119ee565b506060830151611a4f60608601826119ee565b5060808301518482036080860152611a6782826118d9565b91505060a083015184820360a0860152611a8182826118d9565b91505060c083015184820360c0860152611a9b82826118d9565b91505060e083015184820360e0860152611ab582826118d9565b915050610100830151611acc61010086018261191c565b50610120830151611ae161012086018261191c565b50610140830151611af661014086018261191c565b50610160830151611b0b61016086018261191c565b508091505092915050565b6000611b2283836119fd565b905092915050565b6000602082019050919050565b6000611b42826119a8565b611b4c81856119b3565b935083602082028501611b5e856119c4565b8060005b85811015611b9a5784840389528151611b7b8582611b16565b9450611b8683611b2a565b925060208a01995050600181019050611b62565b50829750879550505050505092915050565b600060a0820190508181036000830152611bc6818861192b565b90508181036020830152611bda8187611b37565b90508181036040830152611bee8186611b37565b90508181036060830152611c028185611b37565b90508181036080830152611c168184611b37565b90509695505050505050565b600060208284031215611c3857611c3761161b565b5b6000611c468482850161166e565b91505092915050565b600061018083016000830151611c68600086018261187b565b506020830151611c7b602086018261187b565b506040830151611c8e60408601826119ee565b506060830151611ca160608601826119ee565b5060808301518482036080860152611cb982826118d9565b91505060a083015184820360a0860152611cd382826118d9565b91505060c083015184820360c0860152611ced82826118d9565b91505060e083015184820360e0860152611d0782826118d9565b915050610100830151611d1e61010086018261191c565b50610120830151611d3361012086018261191c565b50610140830151611d4861014086018261191c565b50610160830151611d5d61016086018261191c565b508091505092915050565b60006020820190508181036000830152611d828184611c4f565b905092915050565b60008060408385031215611da157611da061161b565b5b6000611daf8582860161166e565b9250506020611dc08582860161166e565b9150509250929050565b60006020820190508181036000830152611de4818461192b565b905092915050565b7f4e487b7100000000000000000000000000000000000000000000000000000000600052603260045260246000fd5b611e2481611645565b82525050565b6000604082019050611e3f6000830185611e1b565b611e4c6020830184611e1b565b9392505050565b600081519050611e6281611657565b92915050565b600060208284031215611e7e57611e7d61161b565b5b6000611e8c84828501611e53565b91505092915050565b7f4e487b7100000000000000000000000000000000000000000000000000000000600052601160045260246000fd5b6000611ecf82611912565b91507fffffffffffffffffffffffffffffffffffffffffffffffffffffffffffffffff821415611f0257611f01611e95565b5b600182019050919050565b611f16816119d4565b8114611f2157600080fd5b50565b600081519050611f3381611f0d565b92915050565b600063ffffffff82169050919050565b611f5281611f39565b8114611f5d57600080fd5b50565b600081519050611f6f81611f49565b92915050565b600080600060608486031215611f8e57611f8d61161b565b5b6000611f9c86828701611f24565b9350506020611fad86828701611f24565b9250506040611fbe86828701611f60565b9150509250925092565b600080fd5b600067ffffffffffffffff821115611fe857611fe7611699565b5b611ff182611688565b9050602081019050919050565b600061201161200c84611fcd565b6116f9565b90508281526020810184848401111561202d5761202c611fc8565b5b6120388482856118a6565b509392505050565b600082601f83011261205557612054611683565b5b8151612065848260208601611ffe565b91505092915050565b6000602082840312156120845761208361161b565b5b600082015167ffffffffffffffff8111156120a2576120a1611620565b5b6120ae84828501612040565b91505092915050565b600060ff82169050919050565b6120cd816120b7565b81146120d857600080fd5b50565b6000815190506120ea816120c4565b92915050565b6000602082840312156121065761210561161b565b5b6000612114848285016120db565b91505092915050565b61212681611912565b811461213157600080fd5b50565b6000815190506121438161211d565b92915050565b60006020828403121561215f5761215e61161b565b5b600061216d84828501612134565b91505092915050565b600060208201905061218b6000830184611e1b565b9291505056fea264697066735822122093fa775daef198f1baf99ca6f1466f621a2d7f2db7dbe696117abb1e931a235164736f6c634300080a0033",
  "immutableReferences": {},
  "source": "// SPDX-License-Identifier: BUSL-1.1\npragma solidity >=0.5.0;\n\ninterface IUniswapV2Pair {\n    event Approval(\n        address indexed owner,\n        address indexed spender,\n        uint256 value\n    );\n    event Transfer(address indexed from, address indexed to, uint256 value);\n\n    function name() external pure returns (string memory);\n\n    function symbol() external pure returns (string memory);\n\n    function decimals() external pure returns (uint8);\n\n    function totalSupply() external view returns (uint256);\n\n    function balanceOf(address owner) external view returns (uint256);\n\n    function allowance(address owner, address spender)\n        external\n        view\n        returns (uint256);\n\n    function approve(address spender, uint256 value) external returns (bool);\n\n    function transfer(address to, uint256 value) external returns (bool);\n\n    function transferFrom(\n        address from,\n        address to,\n        uint256 value\n    ) external returns (bool);\n\n    function DOMAIN_SEPARATOR() external view returns (bytes32);\n\n    function PERMIT_TYPEHASH() external pure returns (bytes32);\n\n    function nonces(address owner) external view returns (uint256);\n\n    function permit(\n        address owner,\n        address spender,\n        uint256 value,\n        uint256 deadline,\n        uint8 v,\n        bytes32 r,\n        bytes32 s\n    ) external;\n\n    event Mint(address indexed sender, uint256 amount0, uint256 amount1);\n    event Burn(\n        address indexed sender,\n        uint256 amount0,\n        uint256 amount1,\n        address indexed to\n    );\n    event Swap(\n        address indexed sender,\n        uint256 amount0In,\n        uint256 amount1In,\n        uint256 amount0Out,\n        uint256 amount1Out,\n        address indexed to\n    );\n    event Sync(uint112 reserve0, uint112 reserve1);\n\n    function MINIMUM_LIQUIDITY() external pure returns (uint256);\n\n    function factory() external view returns (address);\n\n    function token0() external view returns (address);\n\n    function token1() external view returns (address);\n\n    function getReserves()\n        external\n        view\n        returns (\n            uint112 reserve0,\n            uint112 reserve1,\n            uint32 blockTimestampLast\n        );\n\n    function price0CumulativeLast() external view returns (uint256);\n\n    function price1CumulativeLast() external view returns (uint256);\n\n    function kLast() external view returns (uint256);\n\n    function mint(address to) external returns (uint256 liquidity);\n\n    function burn(address to)\n        external\n        returns (uint256 amount0, uint256 amount1);\n\n    function swap(\n        uint256 amount0Out,\n        uint256 amount1Out,\n        address to,\n        bytes calldata data\n    ) external;\n\n    function skim(address to) external;\n\n    function sync() external;\n\n    function initialize(address, address) external;\n}\n\ninterface IERC20 {\n    event Approval(\n        address indexed owner,\n        address indexed spender,\n        uint256 value\n    );\n    event Transfer(address indexed from, address indexed to, uint256 value);\n\n    function name() external view returns (string memory);\n\n    function symbol() external view returns (string memory);\n\n    function decimals() external view returns (uint8);\n\n    function totalSupply() external view returns (uint256);\n\n    function balanceOf(address owner) external view returns (uint256);\n\n    function allowance(address owner, address spender)\n        external\n        view\n        returns (uint256);\n\n    function approve(address spender, uint256 value) external returns (bool);\n\n    function transfer(address to, uint256 value) external returns (bool);\n\n    function transferFrom(\n        address from,\n        address to,\n        uint256 value\n    ) external returns (bool);\n}\n\ninterface IUniswapV2Factory {\n    event PairCreated(\n        address indexed token0,\n        address indexed token1,\n        address pair,\n        uint256\n    );\n\n    function feeTo() external view returns (address);\n\n    function feeToSetter() external view returns (address);\n\n    function getPair(address tokenA, address tokenB)\n        external\n        view\n        returns (address pair);\n\n    function allPairs(uint256) external view returns (address pair);\n\n    function allPairsLength() external view returns (uint256);\n\n    function createPair(address tokenA, address tokenB)\n        external\n        returns (address pair);\n\n    function setFeeTo(address) external;\n\n    function setFeeToSetter(address) external;\n}\n\ncontract FactoryTracker {\n    struct PairData {\n        address token0;\n        address token1;\n        uint112 reserve0;\n        uint112 reserve1;\n        string name;\n        string symbol;\n        string token0Symbol;\n        string token1Symbol;\n        uint256 token0Decimals;\n        uint256 token1Decimals;\n        uint256 totalSupply;\n        uint256 balance;\n    }\n    struct TokenData {\n        address _tokenAddress;\n        string name;\n        string symbol;\n        uint256 totalSupply;\n        uint256 balance;\n    }\n\n    function getPair(address _pairAddress)\n        public\n        view\n        returns (PairData memory)\n    {\n        PairData memory newPairData;\n        IUniswapV2Pair newPair = IUniswapV2Pair(_pairAddress);\n        newPairData.token0 = newPair.token0();\n        newPairData.token1 = newPair.token1();\n\n        (uint112 reserve0, uint112 reserve1, uint256 _x) = newPair\n            .getReserves();\n        // uint112 reserve0 = newPair.getReserves();\n        // uint256 reserve1 = newPair.getReserves()[1];\n\n        newPairData.name = newPair.name();\n        newPairData.symbol = newPair.symbol();\n        IERC20 _token0 = IERC20(newPairData.token0);\n        IERC20 _token1 = IERC20(newPairData.token1);\n        newPairData.token0Symbol = _token0.symbol();\n        newPairData.token1Symbol = _token1.symbol();\n        newPairData.token0Decimals = _token0.decimals();\n        newPairData.token1Decimals = _token1.decimals();\n        newPairData.totalSupply = newPair.totalSupply();\n        newPairData.balance = 0;\n        newPairData.reserve0 = reserve0;\n        newPairData.reserve1 = reserve1;\n\n        return newPairData;\n    }\n\n    function getPairWithBalanceOf(address _pairAddress, address _account)\n        public\n        view\n        returns (PairData memory)\n    {\n        PairData memory newPairData;\n\n        IUniswapV2Pair newPair = IUniswapV2Pair(_pairAddress);\n        newPairData.token0 = newPair.token0();\n        newPairData.token1 = newPair.token1();\n\n        (uint112 reserve0, uint112 reserve1, uint256 _x) = newPair\n            .getReserves();\n\n        newPairData.name = newPair.name();\n        newPairData.symbol = newPair.symbol();\n        IERC20 _token0 = IERC20(newPairData.token0);\n        IERC20 _token1 = IERC20(newPairData.token1);\n        newPairData.token0Symbol = _token0.symbol();\n        newPairData.token1Symbol = _token1.symbol();\n        newPairData.token0Decimals = _token0.decimals();\n        newPairData.token1Decimals = _token1.decimals();\n        newPairData.totalSupply = newPair.totalSupply();\n        newPairData.balance = newPair.balanceOf(_account);\n        newPairData.reserve0 = reserve0;\n        newPairData.reserve1 = reserve1;\n\n        return newPairData;\n    }\n\n    function getToken(address _tokenAddress)\n        public\n        view\n        returns (TokenData memory)\n    {\n        TokenData memory newTokenData;\n        IERC20 newToken = IERC20(_tokenAddress);\n        newTokenData.totalSupply = newToken.totalSupply();\n        newTokenData.balance = 0;\n        newTokenData.name = newToken.name();\n        newTokenData.symbol = newToken.symbol();\n        newTokenData._tokenAddress = _tokenAddress;\n\n        return newTokenData;\n    }\n\n    function getTokenWithBalanceOf(address _tokenAddress, address _account)\n        public\n        view\n        returns (TokenData memory)\n    {\n        TokenData memory newTokenData;\n        IERC20 newToken = IERC20(_tokenAddress);\n        newTokenData.totalSupply = newToken.totalSupply();\n        newTokenData.balance = newToken.balanceOf(_account);\n        newTokenData.name = newToken.name();\n        newTokenData.symbol = newToken.symbol();\n        newTokenData._tokenAddress = _tokenAddress;\n\n        return newTokenData;\n    }\n\n    function getTokenWithBalanceOfAndLps(\n        address _tokenAddress,\n        address _account,\n        address[] memory _factories,\n        address[] memory _quoteTokens\n    )\n        public\n        view\n        returns (\n            TokenData memory _tokenData,\n            PairData[] memory _pair0,\n            PairData[] memory _pair1,\n            PairData[] memory _pair2,\n            PairData[] memory _pair3\n        )\n    {\n        TokenData memory newTokenData = getTokenWithBalanceOf(\n            _tokenAddress,\n            _account\n        );\n        PairData[] memory _lp0Data = new PairData[](_factories.length);\n\n        PairData[] memory _lp1Data = new PairData[](_factories.length);\n        PairData[] memory _lp2Data = new PairData[](_factories.length);\n        PairData[] memory _lp3Data = new PairData[](_factories.length);\n\n        address[] memory quoteTokenAddresses = _quoteTokens;\n        address[] memory factoriesAddresses = _factories;\n        address uniFactoryAddress;\n        IUniswapV2Factory iUniFactory;\n        address _lp;\n        // PairData memory newPairData;\n        for (uint256 index = 0; index < quoteTokenAddresses.length; index++) {\n            for (\n                uint256 index2 = 0;\n                index2 < factoriesAddresses.length;\n                index2++\n            ) {\n                uniFactoryAddress = factoriesAddresses[index2];\n                iUniFactory = IUniswapV2Factory(uniFactoryAddress);\n                _lp = iUniFactory.getPair(\n                    newTokenData._tokenAddress,\n                    quoteTokenAddresses[index]\n                );\n\n                if (_lp != address(0)) {\n                    // newPairData = getPair(_lp);\n                    if (index == 0) {\n                        _lp0Data[index2] = getPair(_lp);\n                    }\n                    if (index == 1) {\n                        _lp1Data[index2] = getPair(_lp);\n                    }\n                    if (index == 2) {\n                        _lp2Data[index2] = getPair(_lp);\n                    }\n                    if (index == 3) {\n                        _lp3Data[index2] = getPair(_lp);\n                    }\n                }\n            }\n        }\n\n        return (newTokenData, _lp0Data, _lp1Data, _lp2Data, _lp3Data);\n    }\n}\n",
  "sourcePath": "/Users/saurabhacademic/Desktop/Projects v2/Portfolio-contracts/contracts/FactoryTracker.sol",
  "compiler": {
    "name": "solc",
    "version": "0.8.10+commit.fc410830.Emscripten.clang"
  },
  "schemaVersion": "3.4.4",
  "updatedAt": "2022-06-08T07:23:04.416Z",
  "devdoc": {
    "kind": "dev",
    "methods": {},
    "version": 1
  },
  "userdoc": {
    "kind": "user",
    "methods": {},
    "version": 1
  }
}