{
  "contractName": "FactoryTracker",
  "abi": [
    {
      "inputs": [
        {
          "internalType": "uint256",
          "name": "",
          "type": "uint256"
        },
        {
          "internalType": "uint256",
          "name": "",
          "type": "uint256"
        }
      ],
      "name": "lpsMap",
      "outputs": [
        {
          "internalType": "address",
          "name": "token0",
          "type": "address"
        },
        {
          "internalType": "address",
          "name": "token1",
          "type": "address"
        },
        {
          "internalType": "uint112",
          "name": "reserve0",
          "type": "uint112"
        },
        {
          "internalType": "uint112",
          "name": "reserve1",
          "type": "uint112"
        },
        {
          "internalType": "string",
          "name": "name",
          "type": "string"
        },
        {
          "internalType": "string",
          "name": "symbol",
          "type": "string"
        },
        {
          "internalType": "string",
          "name": "token0Symbol",
          "type": "string"
        },
        {
          "internalType": "string",
          "name": "token1Symbol",
          "type": "string"
        },
        {
          "internalType": "uint256",
          "name": "token0Decimals",
          "type": "uint256"
        },
        {
          "internalType": "uint256",
          "name": "token1Decimals",
          "type": "uint256"
        },
        {
          "internalType": "uint256",
          "name": "totalSupply",
          "type": "uint256"
        },
        {
          "internalType": "uint256",
          "name": "balance",
          "type": "uint256"
        }
      ],
      "stateMutability": "view",
      "type": "function"
    },
    {
      "inputs": [
        {
          "internalType": "address",
          "name": "_pairAddress",
          "type": "address"
        }
      ],
      "name": "getPair",
      "outputs": [
        {
          "components": [
            {
              "internalType": "address",
              "name": "token0",
              "type": "address"
            },
            {
              "internalType": "address",
              "name": "token1",
              "type": "address"
            },
            {
              "internalType": "uint112",
              "name": "reserve0",
              "type": "uint112"
            },
            {
              "internalType": "uint112",
              "name": "reserve1",
              "type": "uint112"
            },
            {
              "internalType": "string",
              "name": "name",
              "type": "string"
            },
            {
              "internalType": "string",
              "name": "symbol",
              "type": "string"
            },
            {
              "internalType": "string",
              "name": "token0Symbol",
              "type": "string"
            },
            {
              "internalType": "string",
              "name": "token1Symbol",
              "type": "string"
            },
            {
              "internalType": "uint256",
              "name": "token0Decimals",
              "type": "uint256"
            },
            {
              "internalType": "uint256",
              "name": "token1Decimals",
              "type": "uint256"
            },
            {
              "internalType": "uint256",
              "name": "totalSupply",
              "type": "uint256"
            },
            {
              "internalType": "uint256",
              "name": "balance",
              "type": "uint256"
            }
          ],
          "internalType": "struct FactoryTracker.PairData",
          "name": "",
          "type": "tuple"
        }
      ],
      "stateMutability": "view",
      "type": "function"
    },
    {
      "inputs": [
        {
          "internalType": "address",
          "name": "_pairAddress",
          "type": "address"
        },
        {
          "internalType": "address",
          "name": "_account",
          "type": "address"
        }
      ],
      "name": "getPairWithBalanceOf",
      "outputs": [
        {
          "components": [
            {
              "internalType": "address",
              "name": "token0",
              "type": "address"
            },
            {
              "internalType": "address",
              "name": "token1",
              "type": "address"
            },
            {
              "internalType": "uint112",
              "name": "reserve0",
              "type": "uint112"
            },
            {
              "internalType": "uint112",
              "name": "reserve1",
              "type": "uint112"
            },
            {
              "internalType": "string",
              "name": "name",
              "type": "string"
            },
            {
              "internalType": "string",
              "name": "symbol",
              "type": "string"
            },
            {
              "internalType": "string",
              "name": "token0Symbol",
              "type": "string"
            },
            {
              "internalType": "string",
              "name": "token1Symbol",
              "type": "string"
            },
            {
              "internalType": "uint256",
              "name": "token0Decimals",
              "type": "uint256"
            },
            {
              "internalType": "uint256",
              "name": "token1Decimals",
              "type": "uint256"
            },
            {
              "internalType": "uint256",
              "name": "totalSupply",
              "type": "uint256"
            },
            {
              "internalType": "uint256",
              "name": "balance",
              "type": "uint256"
            }
          ],
          "internalType": "struct FactoryTracker.PairData",
          "name": "",
          "type": "tuple"
        }
      ],
      "stateMutability": "view",
      "type": "function"
    },
    {
      "inputs": [
        {
          "internalType": "address",
          "name": "_tokenAddress",
          "type": "address"
        }
      ],
      "name": "getToken",
      "outputs": [
        {
          "components": [
            {
              "internalType": "address",
              "name": "_tokenAddress",
              "type": "address"
            },
            {
              "internalType": "string",
              "name": "name",
              "type": "string"
            },
            {
              "internalType": "string",
              "name": "symbol",
              "type": "string"
            },
            {
              "internalType": "uint256",
              "name": "totalSupply",
              "type": "uint256"
            },
            {
              "internalType": "uint256",
              "name": "balance",
              "type": "uint256"
            }
          ],
          "internalType": "struct FactoryTracker.TokenData",
          "name": "",
          "type": "tuple"
        }
      ],
      "stateMutability": "view",
      "type": "function"
    },
    {
      "inputs": [
        {
          "internalType": "address",
          "name": "_tokenAddress",
          "type": "address"
        },
        {
          "internalType": "address",
          "name": "_account",
          "type": "address"
        }
      ],
      "name": "getTokenWithBalanceOf",
      "outputs": [
        {
          "components": [
            {
              "internalType": "address",
              "name": "_tokenAddress",
              "type": "address"
            },
            {
              "internalType": "string",
              "name": "name",
              "type": "string"
            },
            {
              "internalType": "string",
              "name": "symbol",
              "type": "string"
            },
            {
              "internalType": "uint256",
              "name": "totalSupply",
              "type": "uint256"
            },
            {
              "internalType": "uint256",
              "name": "balance",
              "type": "uint256"
            }
          ],
          "internalType": "struct FactoryTracker.TokenData",
          "name": "",
          "type": "tuple"
        }
      ],
      "stateMutability": "view",
      "type": "function"
    },
    {
      "inputs": [
        {
          "internalType": "address",
          "name": "_tokenAddress",
          "type": "address"
        },
        {
          "internalType": "address",
          "name": "_account",
          "type": "address"
        },
        {
          "internalType": "address[]",
          "name": "_factories",
          "type": "address[]"
        },
        {
          "internalType": "address[]",
          "name": "_quoteTokens",
          "type": "address[]"
        }
      ],
      "name": "getTokenWithBalanceOfAndLps",
      "outputs": [
        {
          "components": [
            {
              "internalType": "address",
              "name": "_tokenAddress",
              "type": "address"
            },
            {
              "internalType": "string",
              "name": "name",
              "type": "string"
            },
            {
              "internalType": "string",
              "name": "symbol",
              "type": "string"
            },
            {
              "internalType": "uint256",
              "name": "totalSupply",
              "type": "uint256"
            },
            {
              "internalType": "uint256",
              "name": "balance",
              "type": "uint256"
            }
          ],
          "internalType": "struct FactoryTracker.TokenData",
          "name": "_tokenData",
          "type": "tuple"
        },
        {
          "components": [
            {
              "internalType": "address",
              "name": "token0",
              "type": "address"
            },
            {
              "internalType": "address",
              "name": "token1",
              "type": "address"
            },
            {
              "internalType": "uint112",
              "name": "reserve0",
              "type": "uint112"
            },
            {
              "internalType": "uint112",
              "name": "reserve1",
              "type": "uint112"
            },
            {
              "internalType": "string",
              "name": "name",
              "type": "string"
            },
            {
              "internalType": "string",
              "name": "symbol",
              "type": "string"
            },
            {
              "internalType": "string",
              "name": "token0Symbol",
              "type": "string"
            },
            {
              "internalType": "string",
              "name": "token1Symbol",
              "type": "string"
            },
            {
              "internalType": "uint256",
              "name": "token0Decimals",
              "type": "uint256"
            },
            {
              "internalType": "uint256",
              "name": "token1Decimals",
              "type": "uint256"
            },
            {
              "internalType": "uint256",
              "name": "totalSupply",
              "type": "uint256"
            },
            {
              "internalType": "uint256",
              "name": "balance",
              "type": "uint256"
            }
          ],
          "internalType": "struct FactoryTracker.PairData[]",
          "name": "_pair0",
          "type": "tuple[]"
        },
        {
          "components": [
            {
              "internalType": "address",
              "name": "token0",
              "type": "address"
            },
            {
              "internalType": "address",
              "name": "token1",
              "type": "address"
            },
            {
              "internalType": "uint112",
              "name": "reserve0",
              "type": "uint112"
            },
            {
              "internalType": "uint112",
              "name": "reserve1",
              "type": "uint112"
            },
            {
              "internalType": "string",
              "name": "name",
              "type": "string"
            },
            {
              "internalType": "string",
              "name": "symbol",
              "type": "string"
            },
            {
              "internalType": "string",
              "name": "token0Symbol",
              "type": "string"
            },
            {
              "internalType": "string",
              "name": "token1Symbol",
              "type": "string"
            },
            {
              "internalType": "uint256",
              "name": "token0Decimals",
              "type": "uint256"
            },
            {
              "internalType": "uint256",
              "name": "token1Decimals",
              "type": "uint256"
            },
            {
              "internalType": "uint256",
              "name": "totalSupply",
              "type": "uint256"
            },
            {
              "internalType": "uint256",
              "name": "balance",
              "type": "uint256"
            }
          ],
          "internalType": "struct FactoryTracker.PairData[]",
          "name": "_pair1",
          "type": "tuple[]"
        },
        {
          "components": [
            {
              "internalType": "address",
              "name": "token0",
              "type": "address"
            },
            {
              "internalType": "address",
              "name": "token1",
              "type": "address"
            },
            {
              "internalType": "uint112",
              "name": "reserve0",
              "type": "uint112"
            },
            {
              "internalType": "uint112",
              "name": "reserve1",
              "type": "uint112"
            },
            {
              "internalType": "string",
              "name": "name",
              "type": "string"
            },
            {
              "internalType": "string",
              "name": "symbol",
              "type": "string"
            },
            {
              "internalType": "string",
              "name": "token0Symbol",
              "type": "string"
            },
            {
              "internalType": "string",
              "name": "token1Symbol",
              "type": "string"
            },
            {
              "internalType": "uint256",
              "name": "token0Decimals",
              "type": "uint256"
            },
            {
              "internalType": "uint256",
              "name": "token1Decimals",
              "type": "uint256"
            },
            {
              "internalType": "uint256",
              "name": "totalSupply",
              "type": "uint256"
            },
            {
              "internalType": "uint256",
              "name": "balance",
              "type": "uint256"
            }
          ],
          "internalType": "struct FactoryTracker.PairData[]",
          "name": "_pair2",
          "type": "tuple[]"
        },
        {
          "components": [
            {
              "internalType": "address",
              "name": "token0",
              "type": "address"
            },
            {
              "internalType": "address",
              "name": "token1",
              "type": "address"
            },
            {
              "internalType": "uint112",
              "name": "reserve0",
              "type": "uint112"
            },
            {
              "internalType": "uint112",
              "name": "reserve1",
              "type": "uint112"
            },
            {
              "internalType": "string",
              "name": "name",
              "type": "string"
            },
            {
              "internalType": "string",
              "name": "symbol",
              "type": "string"
            },
            {
              "internalType": "string",
              "name": "token0Symbol",
              "type": "string"
            },
            {
              "internalType": "string",
              "name": "token1Symbol",
              "type": "string"
            },
            {
              "internalType": "uint256",
              "name": "token0Decimals",
              "type": "uint256"
            },
            {
              "internalType": "uint256",
              "name": "token1Decimals",
              "type": "uint256"
            },
            {
              "internalType": "uint256",
              "name": "totalSupply",
              "type": "uint256"
            },
            {
              "internalType": "uint256",
              "name": "balance",
              "type": "uint256"
            }
          ],
          "internalType": "struct FactoryTracker.PairData[]",
          "name": "_pair3",
          "type": "tuple[]"
        }
      ],
      "stateMutability": "view",
      "type": "function"
    }
  ],
  "bytecode": "0x608060405234801561001057600080fd5b50612703806100206000396000f3fe608060405234801561001057600080fd5b50600436106100625760003560e01c80630f9c5c4d146100675780631a788a021461009b57806329d21d6a146100cb5780633a66214c146100fb578063597704381461012b5780636468ee1b1461015b575b600080fd5b610081600480360381019061007c9190611b24565b610196565b604051610092959493929190611ef4565b60405180910390f35b6100b560048036038101906100b09190611f6a565b610532565b6040516100c291906120b0565b60405180910390f35b6100e560048036038101906100e091906120d2565b610af9565b6040516100f291906120b0565b60405180910390f35b610115600480360381019061011091906120d2565b611139565b6040516101229190612112565b60405180910390f35b61014560048036038101906101409190611f6a565b611384565b6040516101529190612112565b60405180910390f35b61017560048036038101906101709190612160565b611556565b60405161018d9c9b9a99989796959493929190612217565b60405180910390f35b61019e611867565b6060806060806000875167ffffffffffffffff8111156101c1576101c06119e1565b5b6040519080825280602002602001820160405280156101fa57816020015b6101e76118ac565b8152602001906001900390816101df5790505b50905060006102098b8b611139565b90506000895167ffffffffffffffff811115610228576102276119e1565b5b60405190808252806020026020018201604052801561026157816020015b61024e6118ac565b8152602001906001900390816102465790505b50905060008a5167ffffffffffffffff811115610281576102806119e1565b5b6040519080825280602002602001820160405280156102ba57816020015b6102a76118ac565b81526020019060019003908161029f5790505b50905060008b5167ffffffffffffffff8111156102da576102d96119e1565b5b60405190808252806020026020018201604052801561031357816020015b6103006118ac565b8152602001906001900390816102f85790505b50905060008b905060008d9050600080600061032d6118ac565b60005b865181101561050c5760005b86518110156104f857868181518110610358576103576122ed565b5b602002602001015195508594508473ffffffffffffffffffffffffffffffffffffffff1663e6a439058d600001518a8581518110610399576103986122ed565b5b60200260200101516040518363ffffffff1660e01b81526004016103be92919061231c565b602060405180830381865afa1580156103db573d6000803e3d6000fd5b505050506040513d601f19601f820116820180604052508101906103ff919061235a565b9350600073ffffffffffffffffffffffffffffffffffffffff168473ffffffffffffffffffffffffffffffffffffffff16146104e55761043e84610532565b9250600082141561046957828d828151811061045d5761045c6122ed565b5b60200260200101819052505b600182141561049257828b8281518110610486576104856122ed565b5b60200260200101819052505b60028214156104bb57828a82815181106104af576104ae6122ed565b5b60200260200101819052505b60038214156104e457828982815181106104d8576104d76122ed565b5b60200260200101819052505b5b80806104f0906123b6565b91505061033c565b508080610504906123b6565b915050610330565b50898b8a8a8a9f509f509f509f509f505050505050505050505050945094509450945094565b61053a6118ac565b6105426118ac565b60008390508073ffffffffffffffffffffffffffffffffffffffff16630dfe16816040518163ffffffff1660e01b8152600401602060405180830381865afa158015610592573d6000803e3d6000fd5b505050506040513d601f19601f820116820180604052508101906105b6919061235a565b826000019073ffffffffffffffffffffffffffffffffffffffff16908173ffffffffffffffffffffffffffffffffffffffff16815250508073ffffffffffffffffffffffffffffffffffffffff1663d21220a76040518163ffffffff1660e01b8152600401602060405180830381865afa158015610638573d6000803e3d6000fd5b505050506040513d601f19601f8201168201806040525081019061065c919061235a565b826020019073ffffffffffffffffffffffffffffffffffffffff16908173ffffffffffffffffffffffffffffffffffffffff168152505060008060008373ffffffffffffffffffffffffffffffffffffffff16630902f1ac6040518163ffffffff1660e01b8152600401606060405180830381865afa1580156106e3573d6000803e3d6000fd5b505050506040513d601f19601f820116820180604052508101906107079190612467565b63ffffffff169250925092508373ffffffffffffffffffffffffffffffffffffffff166306fdde036040518163ffffffff1660e01b8152600401600060405180830381865afa15801561075e573d6000803e3d6000fd5b505050506040513d6000823e3d601f19601f820116820180604052508101906107879190612560565b85608001819052508373ffffffffffffffffffffffffffffffffffffffff166395d89b416040518163ffffffff1660e01b8152600401600060405180830381865afa1580156107da573d6000803e3d6000fd5b505050506040513d6000823e3d601f19601f820116820180604052508101906108039190612560565b8560a001819052506000856000015190506000866020015190508173ffffffffffffffffffffffffffffffffffffffff166395d89b416040518163ffffffff1660e01b8152600401600060405180830381865afa158015610868573d6000803e3d6000fd5b505050506040513d6000823e3d601f19601f820116820180604052508101906108919190612560565b8760c001819052508073ffffffffffffffffffffffffffffffffffffffff166395d89b416040518163ffffffff1660e01b8152600401600060405180830381865afa1580156108e4573d6000803e3d6000fd5b505050506040513d6000823e3d601f19601f8201168201806040525081019061090d9190612560565b8760e001819052508173ffffffffffffffffffffffffffffffffffffffff1663313ce5676040518163ffffffff1660e01b8152600401602060405180830381865afa158015610960573d6000803e3d6000fd5b505050506040513d601f19601f8201168201806040525081019061098491906125e2565b60ff16876101000181815250508073ffffffffffffffffffffffffffffffffffffffff1663313ce5676040518163ffffffff1660e01b8152600401602060405180830381865afa1580156109dc573d6000803e3d6000fd5b505050506040513d601f19601f82011682018060405250810190610a0091906125e2565b60ff16876101200181815250508573ffffffffffffffffffffffffffffffffffffffff166318160ddd6040518163ffffffff1660e01b8152600401602060405180830381865afa158015610a58573d6000803e3d6000fd5b505050506040513d601f19601f82011682018060405250810190610a7c9190612624565b876101400181815250506000876101600181815250508487604001906dffffffffffffffffffffffffffff1690816dffffffffffffffffffffffffffff16815250508387606001906dffffffffffffffffffffffffffff1690816dffffffffffffffffffffffffffff168152505086975050505050505050919050565b610b016118ac565b610b096118ac565b60008490508073ffffffffffffffffffffffffffffffffffffffff16630dfe16816040518163ffffffff1660e01b8152600401602060405180830381865afa158015610b59573d6000803e3d6000fd5b505050506040513d601f19601f82011682018060405250810190610b7d919061235a565b826000019073ffffffffffffffffffffffffffffffffffffffff16908173ffffffffffffffffffffffffffffffffffffffff16815250508073ffffffffffffffffffffffffffffffffffffffff1663d21220a76040518163ffffffff1660e01b8152600401602060405180830381865afa158015610bff573d6000803e3d6000fd5b505050506040513d601f19601f82011682018060405250810190610c23919061235a565b826020019073ffffffffffffffffffffffffffffffffffffffff16908173ffffffffffffffffffffffffffffffffffffffff168152505060008060008373ffffffffffffffffffffffffffffffffffffffff16630902f1ac6040518163ffffffff1660e01b8152600401606060405180830381865afa158015610caa573d6000803e3d6000fd5b505050506040513d601f19601f82011682018060405250810190610cce9190612467565b63ffffffff169250925092508373ffffffffffffffffffffffffffffffffffffffff166306fdde036040518163ffffffff1660e01b8152600401600060405180830381865afa158015610d25573d6000803e3d6000fd5b505050506040513d6000823e3d601f19601f82011682018060405250810190610d4e9190612560565b85608001819052508373ffffffffffffffffffffffffffffffffffffffff166395d89b416040518163ffffffff1660e01b8152600401600060405180830381865afa158015610da1573d6000803e3d6000fd5b505050506040513d6000823e3d601f19601f82011682018060405250810190610dca9190612560565b8560a001819052506000856000015190506000866020015190508173ffffffffffffffffffffffffffffffffffffffff166395d89b416040518163ffffffff1660e01b8152600401600060405180830381865afa158015610e2f573d6000803e3d6000fd5b505050506040513d6000823e3d601f19601f82011682018060405250810190610e589190612560565b8760c001819052508073ffffffffffffffffffffffffffffffffffffffff166395d89b416040518163ffffffff1660e01b8152600401600060405180830381865afa158015610eab573d6000803e3d6000fd5b505050506040513d6000823e3d601f19601f82011682018060405250810190610ed49190612560565b8760e001819052508173ffffffffffffffffffffffffffffffffffffffff1663313ce5676040518163ffffffff1660e01b8152600401602060405180830381865afa158015610f27573d6000803e3d6000fd5b505050506040513d601f19601f82011682018060405250810190610f4b91906125e2565b60ff16876101000181815250508073ffffffffffffffffffffffffffffffffffffffff1663313ce5676040518163ffffffff1660e01b8152600401602060405180830381865afa158015610fa3573d6000803e3d6000fd5b505050506040513d601f19601f82011682018060405250810190610fc791906125e2565b60ff16876101200181815250508573ffffffffffffffffffffffffffffffffffffffff166318160ddd6040518163ffffffff1660e01b8152600401602060405180830381865afa15801561101f573d6000803e3d6000fd5b505050506040513d601f19601f820116820180604052508101906110439190612624565b876101400181815250508573ffffffffffffffffffffffffffffffffffffffff166370a082318a6040518263ffffffff1660e01b81526004016110869190612651565b602060405180830381865afa1580156110a3573d6000803e3d6000fd5b505050506040513d601f19601f820116820180604052508101906110c79190612624565b876101600181815250508487604001906dffffffffffffffffffffffffffff1690816dffffffffffffffffffffffffffff16815250508387606001906dffffffffffffffffffffffffffff1690816dffffffffffffffffffffffffffff16815250508697505050505050505092915050565b611141611867565b611149611867565b60008490508073ffffffffffffffffffffffffffffffffffffffff166318160ddd6040518163ffffffff1660e01b8152600401602060405180830381865afa158015611199573d6000803e3d6000fd5b505050506040513d601f19601f820116820180604052508101906111bd9190612624565b8260600181815250508073ffffffffffffffffffffffffffffffffffffffff166370a08231856040518263ffffffff1660e01b81526004016111ff9190612651565b602060405180830381865afa15801561121c573d6000803e3d6000fd5b505050506040513d601f19601f820116820180604052508101906112409190612624565b8260800181815250508073ffffffffffffffffffffffffffffffffffffffff166306fdde036040518163ffffffff1660e01b8152600401600060405180830381865afa158015611294573d6000803e3d6000fd5b505050506040513d6000823e3d601f19601f820116820180604052508101906112bd9190612560565b82602001819052508073ffffffffffffffffffffffffffffffffffffffff166395d89b416040518163ffffffff1660e01b8152600401600060405180830381865afa158015611310573d6000803e3d6000fd5b505050506040513d6000823e3d601f19601f820116820180604052508101906113399190612560565b826040018190525084826000019073ffffffffffffffffffffffffffffffffffffffff16908173ffffffffffffffffffffffffffffffffffffffff1681525050819250505092915050565b61138c611867565b611394611867565b60008390508073ffffffffffffffffffffffffffffffffffffffff166318160ddd6040518163ffffffff1660e01b8152600401602060405180830381865afa1580156113e4573d6000803e3d6000fd5b505050506040513d601f19601f820116820180604052508101906114089190612624565b82606001818152505060008260800181815250508073ffffffffffffffffffffffffffffffffffffffff166306fdde036040518163ffffffff1660e01b8152600401600060405180830381865afa158015611467573d6000803e3d6000fd5b505050506040513d6000823e3d601f19601f820116820180604052508101906114909190612560565b82602001819052508073ffffffffffffffffffffffffffffffffffffffff166395d89b416040518163ffffffff1660e01b8152600401600060405180830381865afa1580156114e3573d6000803e3d6000fd5b505050506040513d6000823e3d601f19601f8201168201806040525081019061150c9190612560565b826040018190525083826000019073ffffffffffffffffffffffffffffffffffffffff16908173ffffffffffffffffffffffffffffffffffffffff16815250508192505050919050565b6000602052816000526040600020818154811061157257600080fd5b90600052602060002090600b0201600091509150508060000160009054906101000a900473ffffffffffffffffffffffffffffffffffffffff16908060010160009054906101000a900473ffffffffffffffffffffffffffffffffffffffff16908060020160009054906101000a90046dffffffffffffffffffffffffffff169080600201600e9054906101000a90046dffffffffffffffffffffffffffff16908060030180546116229061269b565b80601f016020809104026020016040519081016040528092919081815260200182805461164e9061269b565b801561169b5780601f106116705761010080835404028352916020019161169b565b820191906000526020600020905b81548152906001019060200180831161167e57829003601f168201915b5050505050908060040180546116b09061269b565b80601f01602080910402602001604051908101604052809291908181526020018280546116dc9061269b565b80156117295780601f106116fe57610100808354040283529160200191611729565b820191906000526020600020905b81548152906001019060200180831161170c57829003601f168201915b50505050509080600501805461173e9061269b565b80601f016020809104026020016040519081016040528092919081815260200182805461176a9061269b565b80156117b75780601f1061178c576101008083540402835291602001916117b7565b820191906000526020600020905b81548152906001019060200180831161179a57829003601f168201915b5050505050908060060180546117cc9061269b565b80601f01602080910402602001604051908101604052809291908181526020018280546117f89061269b565b80156118455780601f1061181a57610100808354040283529160200191611845565b820191906000526020600020905b81548152906001019060200180831161182857829003601f168201915b50505050509080600701549080600801549080600901549080600a015490508c565b6040518060a00160405280600073ffffffffffffffffffffffffffffffffffffffff168152602001606081526020016060815260200160008152602001600081525090565b604051806101800160405280600073ffffffffffffffffffffffffffffffffffffffff168152602001600073ffffffffffffffffffffffffffffffffffffffff16815260200160006dffffffffffffffffffffffffffff16815260200160006dffffffffffffffffffffffffffff16815260200160608152602001606081526020016060815260200160608152602001600081526020016000815260200160008152602001600081525090565b6000604051905090565b600080fd5b600080fd5b600073ffffffffffffffffffffffffffffffffffffffff82169050919050565b60006119988261196d565b9050919050565b6119a88161198d565b81146119b357600080fd5b50565b6000813590506119c58161199f565b92915050565b600080fd5b6000601f19601f8301169050919050565b7f4e487b7100000000000000000000000000000000000000000000000000000000600052604160045260246000fd5b611a19826119d0565b810181811067ffffffffffffffff82111715611a3857611a376119e1565b5b80604052505050565b6000611a4b611959565b9050611a578282611a10565b919050565b600067ffffffffffffffff821115611a7757611a766119e1565b5b602082029050602081019050919050565b600080fd5b6000611aa0611a9b84611a5c565b611a41565b90508083825260208201905060208402830185811115611ac357611ac2611a88565b5b835b81811015611aec5780611ad888826119b6565b845260208401935050602081019050611ac5565b5050509392505050565b600082601f830112611b0b57611b0a6119cb565b5b8135611b1b848260208601611a8d565b91505092915050565b60008060008060808587031215611b3e57611b3d611963565b5b6000611b4c878288016119b6565b9450506020611b5d878288016119b6565b935050604085013567ffffffffffffffff811115611b7e57611b7d611968565b5b611b8a87828801611af6565b925050606085013567ffffffffffffffff811115611bab57611baa611968565b5b611bb787828801611af6565b91505092959194509250565b611bcc8161198d565b82525050565b600081519050919050565b600082825260208201905092915050565b60005b83811015611c0c578082015181840152602081019050611bf1565b83811115611c1b576000848401525b50505050565b6000611c2c82611bd2565b611c368185611bdd565b9350611c46818560208601611bee565b611c4f816119d0565b840191505092915050565b6000819050919050565b611c6d81611c5a565b82525050565b600060a083016000830151611c8b6000860182611bc3565b5060208301518482036020860152611ca38282611c21565b91505060408301518482036040860152611cbd8282611c21565b9150506060830151611cd26060860182611c64565b506080830151611ce56080860182611c64565b508091505092915050565b600081519050919050565b600082825260208201905092915050565b6000819050602082019050919050565b60006dffffffffffffffffffffffffffff82169050919050565b611d3f81611d1c565b82525050565b600061018083016000830151611d5e6000860182611bc3565b506020830151611d716020860182611bc3565b506040830151611d846040860182611d36565b506060830151611d976060860182611d36565b5060808301518482036080860152611daf8282611c21565b91505060a083015184820360a0860152611dc98282611c21565b91505060c083015184820360c0860152611de38282611c21565b91505060e083015184820360e0860152611dfd8282611c21565b915050610100830151611e14610100860182611c64565b50610120830151611e29610120860182611c64565b50610140830151611e3e610140860182611c64565b50610160830151611e53610160860182611c64565b508091505092915050565b6000611e6a8383611d45565b905092915050565b6000602082019050919050565b6000611e8a82611cf0565b611e948185611cfb565b935083602082028501611ea685611d0c565b8060005b85811015611ee25784840389528151611ec38582611e5e565b9450611ece83611e72565b925060208a01995050600181019050611eaa565b50829750879550505050505092915050565b600060a0820190508181036000830152611f0e8188611c73565b90508181036020830152611f228187611e7f565b90508181036040830152611f368186611e7f565b90508181036060830152611f4a8185611e7f565b90508181036080830152611f5e8184611e7f565b90509695505050505050565b600060208284031215611f8057611f7f611963565b5b6000611f8e848285016119b6565b91505092915050565b600061018083016000830151611fb06000860182611bc3565b506020830151611fc36020860182611bc3565b506040830151611fd66040860182611d36565b506060830151611fe96060860182611d36565b50608083015184820360808601526120018282611c21565b91505060a083015184820360a086015261201b8282611c21565b91505060c083015184820360c08601526120358282611c21565b91505060e083015184820360e086015261204f8282611c21565b915050610100830151612066610100860182611c64565b5061012083015161207b610120860182611c64565b50610140830151612090610140860182611c64565b506101608301516120a5610160860182611c64565b508091505092915050565b600060208201905081810360008301526120ca8184611f97565b905092915050565b600080604083850312156120e9576120e8611963565b5b60006120f7858286016119b6565b9250506020612108858286016119b6565b9150509250929050565b6000602082019050818103600083015261212c8184611c73565b905092915050565b61213d81611c5a565b811461214857600080fd5b50565b60008135905061215a81612134565b92915050565b6000806040838503121561217757612176611963565b5b60006121858582860161214b565b92505060206121968582860161214b565b9150509250929050565b6121a98161198d565b82525050565b6121b881611d1c565b82525050565b600082825260208201905092915050565b60006121da82611bd2565b6121e481856121be565b93506121f4818560208601611bee565b6121fd816119d0565b840191505092915050565b61221181611c5a565b82525050565b60006101808201905061222d600083018f6121a0565b61223a602083018e6121a0565b612247604083018d6121af565b612254606083018c6121af565b8181036080830152612266818b6121cf565b905081810360a083015261227a818a6121cf565b905081810360c083015261228e81896121cf565b905081810360e08301526122a281886121cf565b90506122b2610100830187612208565b6122c0610120830186612208565b6122ce610140830185612208565b6122dc610160830184612208565b9d9c50505050505050505050505050565b7f4e487b7100000000000000000000000000000000000000000000000000000000600052603260045260246000fd5b600060408201905061233160008301856121a0565b61233e60208301846121a0565b9392505050565b6000815190506123548161199f565b92915050565b6000602082840312156123705761236f611963565b5b600061237e84828501612345565b91505092915050565b7f4e487b7100000000000000000000000000000000000000000000000000000000600052601160045260246000fd5b60006123c182611c5a565b91507fffffffffffffffffffffffffffffffffffffffffffffffffffffffffffffffff8214156123f4576123f3612387565b5b600182019050919050565b61240881611d1c565b811461241357600080fd5b50565b600081519050612425816123ff565b92915050565b600063ffffffff82169050919050565b6124448161242b565b811461244f57600080fd5b50565b6000815190506124618161243b565b92915050565b6000806000606084860312156124805761247f611963565b5b600061248e86828701612416565b935050602061249f86828701612416565b92505060406124b086828701612452565b9150509250925092565b600080fd5b600067ffffffffffffffff8211156124da576124d96119e1565b5b6124e3826119d0565b9050602081019050919050565b60006125036124fe846124bf565b611a41565b90508281526020810184848401111561251f5761251e6124ba565b5b61252a848285611bee565b509392505050565b600082601f830112612547576125466119cb565b5b81516125578482602086016124f0565b91505092915050565b60006020828403121561257657612575611963565b5b600082015167ffffffffffffffff81111561259457612593611968565b5b6125a084828501612532565b91505092915050565b600060ff82169050919050565b6125bf816125a9565b81146125ca57600080fd5b50565b6000815190506125dc816125b6565b92915050565b6000602082840312156125f8576125f7611963565b5b6000612606848285016125cd565b91505092915050565b60008151905061261e81612134565b92915050565b60006020828403121561263a57612639611963565b5b60006126488482850161260f565b91505092915050565b600060208201905061266660008301846121a0565b92915050565b7f4e487b7100000000000000000000000000000000000000000000000000000000600052602260045260246000fd5b600060028204905060018216806126b357607f821691505b602082108114156126c7576126c661266c565b5b5091905056fea2646970667358221220e58a944a376c06c88d4d975bf6ea2a5d56d45f0659a1504cd50ea8d8b04a1ea364736f6c634300080a0033",
  "immutableReferences": {},
  "source": "// SPDX-License-Identifier: BUSL-1.1\npragma solidity >=0.5.0;\n\ninterface IUniswapV2Pair {\n    event Approval(\n        address indexed owner,\n        address indexed spender,\n        uint256 value\n    );\n    event Transfer(address indexed from, address indexed to, uint256 value);\n\n    function name() external pure returns (string memory);\n\n    function symbol() external pure returns (string memory);\n\n    function decimals() external pure returns (uint8);\n\n    function totalSupply() external view returns (uint256);\n\n    function balanceOf(address owner) external view returns (uint256);\n\n    function allowance(address owner, address spender)\n        external\n        view\n        returns (uint256);\n\n    function approve(address spender, uint256 value) external returns (bool);\n\n    function transfer(address to, uint256 value) external returns (bool);\n\n    function transferFrom(\n        address from,\n        address to,\n        uint256 value\n    ) external returns (bool);\n\n    function DOMAIN_SEPARATOR() external view returns (bytes32);\n\n    function PERMIT_TYPEHASH() external pure returns (bytes32);\n\n    function nonces(address owner) external view returns (uint256);\n\n    function permit(\n        address owner,\n        address spender,\n        uint256 value,\n        uint256 deadline,\n        uint8 v,\n        bytes32 r,\n        bytes32 s\n    ) external;\n\n    event Mint(address indexed sender, uint256 amount0, uint256 amount1);\n    event Burn(\n        address indexed sender,\n        uint256 amount0,\n        uint256 amount1,\n        address indexed to\n    );\n    event Swap(\n        address indexed sender,\n        uint256 amount0In,\n        uint256 amount1In,\n        uint256 amount0Out,\n        uint256 amount1Out,\n        address indexed to\n    );\n    event Sync(uint112 reserve0, uint112 reserve1);\n\n    function MINIMUM_LIQUIDITY() external pure returns (uint256);\n\n    function factory() external view returns (address);\n\n    function token0() external view returns (address);\n\n    function token1() external view returns (address);\n\n    function getReserves()\n        external\n        view\n        returns (\n            uint112 reserve0,\n            uint112 reserve1,\n            uint32 blockTimestampLast\n        );\n\n    function price0CumulativeLast() external view returns (uint256);\n\n    function price1CumulativeLast() external view returns (uint256);\n\n    function kLast() external view returns (uint256);\n\n    function mint(address to) external returns (uint256 liquidity);\n\n    function burn(address to)\n        external\n        returns (uint256 amount0, uint256 amount1);\n\n    function swap(\n        uint256 amount0Out,\n        uint256 amount1Out,\n        address to,\n        bytes calldata data\n    ) external;\n\n    function skim(address to) external;\n\n    function sync() external;\n\n    function initialize(address, address) external;\n}\n\ninterface IERC20 {\n    event Approval(\n        address indexed owner,\n        address indexed spender,\n        uint256 value\n    );\n    event Transfer(address indexed from, address indexed to, uint256 value);\n\n    function name() external view returns (string memory);\n\n    function symbol() external view returns (string memory);\n\n    function decimals() external view returns (uint8);\n\n    function totalSupply() external view returns (uint256);\n\n    function balanceOf(address owner) external view returns (uint256);\n\n    function allowance(address owner, address spender)\n        external\n        view\n        returns (uint256);\n\n    function approve(address spender, uint256 value) external returns (bool);\n\n    function transfer(address to, uint256 value) external returns (bool);\n\n    function transferFrom(\n        address from,\n        address to,\n        uint256 value\n    ) external returns (bool);\n}\n\ninterface IUniswapV2Factory {\n    event PairCreated(\n        address indexed token0,\n        address indexed token1,\n        address pair,\n        uint256\n    );\n\n    function feeTo() external view returns (address);\n\n    function feeToSetter() external view returns (address);\n\n    function getPair(address tokenA, address tokenB)\n        external\n        view\n        returns (address pair);\n\n    function allPairs(uint256) external view returns (address pair);\n\n    function allPairsLength() external view returns (uint256);\n\n    function createPair(address tokenA, address tokenB)\n        external\n        returns (address pair);\n\n    function setFeeTo(address) external;\n\n    function setFeeToSetter(address) external;\n}\n\ncontract FactoryTracker {\n    struct PairData {\n        address token0;\n        address token1;\n        uint112 reserve0;\n        uint112 reserve1;\n        string name;\n        string symbol;\n        string token0Symbol;\n        string token1Symbol;\n        uint256 token0Decimals;\n        uint256 token1Decimals;\n        uint256 totalSupply;\n        uint256 balance;\n    }\n    struct TokenData {\n        address _tokenAddress;\n        string name;\n        string symbol;\n        uint256 totalSupply;\n        uint256 balance;\n    }\n    mapping(uint256 => PairData[]) public lpsMap;\n\n    struct TokenWithLpsData {\n        address _tokenAddress;\n        string name;\n        string symbol;\n        uint256 totalSupply;\n        uint256 balance;\n        // PairData[] _lp0Data;\n        // PairData[] _lp1Data;\n        // PairData[] _lp2Data;\n        // PairData[] _lp3Data;\n        // mapping(uint256 => PairData) _lp0Data;\n        // mapping(uint256 => PairData) _lp1Data;\n        // mapping(uint256 => PairData) _lp2Data;\n        // mapping(uint256 => PairData) _lp3Data;\n    }\n\n    function getPair(address _pairAddress)\n        public\n        view\n        returns (PairData memory)\n    {\n        PairData memory newPairData;\n        IUniswapV2Pair newPair = IUniswapV2Pair(_pairAddress);\n        newPairData.token0 = newPair.token0();\n        newPairData.token1 = newPair.token1();\n\n        (uint112 reserve0, uint112 reserve1, uint256 _x) = newPair\n            .getReserves();\n        // uint112 reserve0 = newPair.getReserves();\n        // uint256 reserve1 = newPair.getReserves()[1];\n\n        newPairData.name = newPair.name();\n        newPairData.symbol = newPair.symbol();\n        IERC20 _token0 = IERC20(newPairData.token0);\n        IERC20 _token1 = IERC20(newPairData.token1);\n        newPairData.token0Symbol = _token0.symbol();\n        newPairData.token1Symbol = _token1.symbol();\n        newPairData.token0Decimals = _token0.decimals();\n        newPairData.token1Decimals = _token1.decimals();\n        newPairData.totalSupply = newPair.totalSupply();\n        newPairData.balance = 0;\n        newPairData.reserve0 = reserve0;\n        newPairData.reserve1 = reserve1;\n\n        return newPairData;\n    }\n\n    function getPairWithBalanceOf(address _pairAddress, address _account)\n        public\n        view\n        returns (PairData memory)\n    {\n        PairData memory newPairData;\n\n        IUniswapV2Pair newPair = IUniswapV2Pair(_pairAddress);\n        newPairData.token0 = newPair.token0();\n        newPairData.token1 = newPair.token1();\n\n        (uint112 reserve0, uint112 reserve1, uint256 _x) = newPair\n            .getReserves();\n\n        newPairData.name = newPair.name();\n        newPairData.symbol = newPair.symbol();\n        IERC20 _token0 = IERC20(newPairData.token0);\n        IERC20 _token1 = IERC20(newPairData.token1);\n        newPairData.token0Symbol = _token0.symbol();\n        newPairData.token1Symbol = _token1.symbol();\n        newPairData.token0Decimals = _token0.decimals();\n        newPairData.token1Decimals = _token1.decimals();\n        newPairData.totalSupply = newPair.totalSupply();\n        newPairData.balance = newPair.balanceOf(_account);\n        newPairData.reserve0 = reserve0;\n        newPairData.reserve1 = reserve1;\n\n        return newPairData;\n    }\n\n    function getToken(address _tokenAddress)\n        public\n        view\n        returns (TokenData memory)\n    {\n        TokenData memory newTokenData;\n        IERC20 newToken = IERC20(_tokenAddress);\n        newTokenData.totalSupply = newToken.totalSupply();\n        newTokenData.balance = 0;\n        newTokenData.name = newToken.name();\n        newTokenData.symbol = newToken.symbol();\n        newTokenData._tokenAddress = _tokenAddress;\n\n        return newTokenData;\n    }\n\n    function getTokenWithBalanceOf(address _tokenAddress, address _account)\n        public\n        view\n        returns (TokenData memory)\n    {\n        TokenData memory newTokenData;\n        IERC20 newToken = IERC20(_tokenAddress);\n        newTokenData.totalSupply = newToken.totalSupply();\n        newTokenData.balance = newToken.balanceOf(_account);\n        newTokenData.name = newToken.name();\n        newTokenData.symbol = newToken.symbol();\n        newTokenData._tokenAddress = _tokenAddress;\n\n        return newTokenData;\n    }\n\n\n    function getTokenWithBalanceOfAndLps(\n        address _tokenAddress,\n        address _account,\n        address[] memory _factories,\n        address[] memory _quoteTokens\n    )\n        public\n        view\n        returns (\n            TokenData memory _tokenData,\n            PairData[] memory _pair0,\n            PairData[] memory _pair1,\n            PairData[] memory _pair2,\n            PairData[] memory _pair3\n        )\n    {\n        // address[]  _lp0Data;\n        PairData[] memory _lp0Data = new PairData[](_factories.length);\n        // TokenWithLpsData memory newTokenData;\n        TokenData memory newTokenData = getTokenWithBalanceOf(\n            _tokenAddress,\n            _account\n        );\n        // newTokenData.totalSupply = newToken.totalSupply();\n        // newTokenData.balance = newToken.balanceOf(_account);\n        // newTokenData.name = newToken.name();\n        // newTokenData.symbol = newToken.symbol();\n        // newTokenData._tokenAddress = _tokenAddress;\n        PairData[] memory _lp1Data = new PairData[](_factories.length);\n        PairData[] memory _lp2Data = new PairData[](_factories.length);\n        PairData[] memory _lp3Data = new PairData[](_factories.length);\n\n        address[] memory quoteTokenAddresses = _quoteTokens;\n        address[] memory factoriesAddresses = _factories;\n        address uniFactoryAddress;\n        IUniswapV2Factory iUniFactory;\n        address _lp;\n        PairData memory newPairData;\n        for (uint256 index = 0; index < quoteTokenAddresses.length; index++) {\n            for (\n                uint256 index2 = 0;\n                index2 < factoriesAddresses.length;\n                index2++\n            ) {\n                uniFactoryAddress = factoriesAddresses[index2];\n                iUniFactory = IUniswapV2Factory(uniFactoryAddress);\n                _lp = iUniFactory.getPair(\n                    newTokenData._tokenAddress,\n                    quoteTokenAddresses[index]\n                );\n                // newPairData = getPair(_lp);\n                // _lp0Data[index2] = newPairData;\n\n                // _lp0Data.push();\n                // lpsMap[index][index2]=newPairData;\n\n                //  if (index == 0) {\n                // _lp0Data[index2] = _lp;\n                // }\n                if (_lp != address(0)) {\n                    newPairData = getPair(_lp);\n                    if (index == 0) {\n                        _lp0Data[index2] = newPairData;\n                    }\n                    if (index == 1) {\n                        _lp1Data[index2] = newPairData;\n                    }\n                    if (index == 2) {\n                        _lp2Data[index2] = newPairData;\n                    }\n                    if (index == 3) {\n                        _lp3Data[index2] = newPairData;\n                    }\n                }\n            }\n        }\n\n        return (newTokenData, _lp0Data, _lp1Data, _lp2Data, _lp3Data);\n    }\n}\n",
  "sourcePath": "/Users/saurabhacademic/Desktop/Projects v2/Portfolio-contracts/contracts/FactoryTracker.sol",
  "compiler": {
    "name": "solc",
    "version": "0.8.10+commit.fc410830.Emscripten.clang"
  },
  "schemaVersion": "3.4.4",
  "updatedAt": "2022-06-08T06:06:58.562Z",
  "devdoc": {
    "kind": "dev",
    "methods": {},
    "version": 1
  },
  "userdoc": {
    "kind": "user",
    "methods": {},
    "version": 1
  }
}